{
  "type": "issue",
  "issue": {
    "id": 316106713,
    "node_id": "MDU6SXNzdWUzMTYxMDY3MTM=",
    "url": "https://api.github.com/repos/bitcoin/bitcoin/issues/13035",
    "repository_url": "https://api.github.com/repos/bitcoin/bitcoin",
    "labels_url": "https://api.github.com/repos/bitcoin/bitcoin/issues/13035/labels%7B/name%7D",
    "comments_url": "https://api.github.com/repos/bitcoin/bitcoin/issues/13035/comments",
    "events_url": "https://api.github.com/repos/bitcoin/bitcoin/issues/13035/events",
    "html_url": "https://github.com/bitcoin/bitcoin/issues/13035",
    "number": 13035,
    "state": "closed",
    "state_reason": "completed",
    "title": "Error sending transaction from P2SH with CSV & conditions",
    "body": "I am testing a simple escrow transaction where the sender gets to send the UTXO back to himself after 512 seconds (1 block in CSV).\r\nnSequence = the token in redeem script = 4194305. \r\nusing decoderawtransaction & manually parsing the hex data, it looks like there are no errors. \r\nHave searched for the error message in the codebase and am not able to figure out where 'unknown error' may be indicating. \r\nis this a bug? or am I just missing something? thanks!  \r\n\r\nfor easy readability, I've attached my parsed version of the transaction hex at the end.  \r\n\r\n```\r\n$ bitcoin-cli -regtest sendrawtransaction \r\n02000000013246884b0078951ca69508a9bd6667b16bc8967edd1b01378c010aae6fac36b901000000bf00473044022054b2af907f7be9a1719869db04acf5171c958fcbeda6b8bc8bd5052330fc88b60220\r\n2592fe1bdbcdcb4b132505a265cf7d55efdf9d2b8de7a83ab786c29c7ab9ab9001004c7363522102e28\r\n87490bd940ef9122575269db1e4d91eeacc2fd85f61b06e443ddd6414736b210281cd7c6b17e5a62786b2f1f4fa0f71126c39540129e7692dabde56d601c1fc3d52ae6703010040b2752102e2887490bd940ef9122575269db1e4d91eeacc2fd85f61b06e443ddd6414736bac6801004000014060e429010000001976a91492d85871fe16cac1cf847ee1b88b9973907670e788ac00000000\r\n```\r\n```\r\nerror code: -26\r\nerror message:\r\n64: non-mandatory-script-verify-flag (unknown error)\r\n```\r\n\r\n<!--- What behavior did you expect? -->\r\nI expected the transaction to be broadcast successfully since the UTXO was clearly more than 512 seconds old by the time I made my numerous attempts. \r\n\r\nI have checked the script works with the btcdeb debugger, which skipped the sequence check. \r\nSo it shouldn't be an issue with the signature, or the conditional part of the script. It should be an issue with CSV. \r\n\r\n<!--- What was the actual behavior (provide screenshots if the issue is GUI-related)? -->\r\n\r\n<!--- How reliably can you reproduce the issue, what are the steps to do so? -->\r\n\r\n<!-- What version of Bitcoin Core are you using, where did you get it (website, self-compiled, etc)? -->\r\n```\r\n$ bitcoin-cli -regtest getinfo \r\n{\r\n  \"deprecation-warning\": \"WARNING: getinfo is deprecated and will be fully removed in 0.16. Projects should transition to using getblockchaininfo, getnetworkinfo, and getwalletinfo before upgrading to 0.16\",\r\n  \"version\": 150100,\r\n  \"protocolversion\": 70015,\r\n  \"walletversion\": 139900,\r\n  \"balance\": 14699.99972510,\r\n  \"blocks\": 100609,\r\n  \"timeoffset\": 0,\r\n  \"connections\": 0,\r\n  \"proxy\": \"\",\r\n  \"difficulty\": 4.656542373906925e-10,\r\n  \"testnet\": false,\r\n  \"keypoololdest\": 1522968861,\r\n  \"keypoolsize\": 1999,\r\n  \"paytxfee\": 0.00000000,\r\n  \"relayfee\": 0.00001000,\r\n  \"errors\": \"\"\r\n}\r\n```\r\n\r\n<!-- What type of machine are you observing the error on (OS/CPU and disk type)? -->\r\nMacOS, 2.6 GHz Intel Core i5, SSD \r\n\r\n<!-- Any extra information that might be useful in the debugging process. -->\r\n<!--- This is normally the contents of a `debug.log` or `config.log` file. Raw text or a link to a pastebin type site are preferred. -->\r\n```\r\n\r\nbitcoin-cli -regtest decoderawtransaction 02000000013246884b0078951ca69508a9bd6667b16bc8967edd1b01378c010aae6fac36b901000000bf00473044022054b2af907f7be9a1719869db04acf5171c958fcbeda6b8bc8bd5052330fc88b602202592fe1bdbcdcb4b132505a265cf7d55efdf9d2b8de7a83ab786c29c7ab9ab9001004c7363522102e2887490bd940ef9122575269db1e4d91eeacc2fd85f61b06e443ddd6414736b210281cd7c6b17e5a62786b2f1f4fa0f71126c39540129e7692dabde56d601c1fc3d52ae6703010040b2752102e2887490bd940ef9122575269db1e4d91eeacc2fd85f61b06e443ddd6414736bac6801004000014060e429010000001976a91492d85871fe16cac1cf847ee1b88b9973907670e788ac00000000  \r\n{\r\n  \"txid\": \"7f196d44abc0fe0c363b087c8d4dfd690f73a0c25c39e15c194f1addc371b1cf\",\r\n  \"hash\": \"7f196d44abc0fe0c363b087c8d4dfd690f73a0c25c39e15c194f1addc371b1cf\",\r\n  \"version\": 2,\r\n  \"size\": 276,\r\n  \"vsize\": 276,\r\n  \"locktime\": 0,\r\n  \"vin\": [\r\n    {\r\n      \"txid\": \"b936ac6fae0a018c37011bdd7e96c86bb16766bda90895a61c9578004b884632\",\r\n      \"vout\": 1,\r\n      \"scriptSig\": {\r\n        \"asm\": \"0 3044022054b2af907f7be9a1719869db04acf5171c958fcbeda6b8bc8bd5052330fc88b602202592fe1bdbcdcb4b132505a265cf7d55efdf9d2b8de7a83ab786c29c7ab9ab90[ALL] 0 63522102e2887490bd940ef9122575269db1e4d91eeacc2fd85f61b06e443ddd6414736b210281cd7c6b17e5a62786b2f1f4fa0f71126c39540129e7692dabde56d601c1fc3d52ae6703010040b2752102e2887490bd940ef9122575269db1e4d91eeacc2fd85f61b06e443ddd6414736bac68\",\r\n        \"hex\": \"00473044022054b2af907f7be9a1719869db04acf5171c958fcbeda6b8bc8bd5052330fc88b602202592fe1bdbcdcb4b132505a265cf7d55efdf9d2b8de7a83ab786c29c7ab9ab9001004c7363522102e2887490bd940ef9122575269db1e4d91eeacc2fd85f61b06e443ddd6414736b210281cd7c6b17e5a62786b2f1f4fa0f71126c39540129e7692dabde56d601c1fc3d52ae6703010040b2752102e2887490bd940ef9122575269db1e4d91eeacc2fd85f61b06e443ddd6414736bac68\"\r\n      },\r\n      \"sequence\": 4194305\r\n    }\r\n  ],\r\n  \"vout\": [\r\n    {\r\n      \"value\": 49.97800000,\r\n      \"n\": 0,\r\n      \"scriptPubKey\": {\r\n        \"asm\": \"OP_DUP OP_HASH160 92d85871fe16cac1cf847ee1b88b9973907670e7 OP_EQUALVERIFY OP_CHECKSIG\",\r\n        \"hex\": \"76a91492d85871fe16cac1cf847ee1b88b9973907670e788ac\",\r\n        \"reqSigs\": 1,\r\n        \"type\": \"pubkeyhash\",\r\n        \"addresses\": [\r\n          \"mtuQ81VrJ4eXmv8igrdkQXd9WF7x8pFnns\"\r\n        ]\r\n      }\r\n    }\r\n  ]\r\n}\r\n```\r\n[finaltransaction2.txt](https://github.com/bitcoin/bitcoin/files/1930442/finaltransaction2.txt)",
    "user": {
      "login": "chinitadelrey",
      "id": 26187282,
      "node_id": "MDQ6VXNlcjI2MTg3Mjgy",
      "avatar_url": "https://avatars.githubusercontent.com/u/26187282?v=4",
      "gravatar_id": "",
      "url": "https://api.github.com/users/chinitadelrey",
      "html_url": "https://github.com/chinitadelrey",
      "followers_url": "https://api.github.com/users/chinitadelrey/followers",
      "following_url": "https://api.github.com/users/chinitadelrey/following%7B/other_user%7D",
      "gists_url": "https://api.github.com/users/chinitadelrey/gists%7B/gist_id%7D",
      "starred_url": "https://api.github.com/users/chinitadelrey/starred%7B/owner%7D%7B/repo%7D",
      "subscriptions_url": "https://api.github.com/users/chinitadelrey/subscriptions",
      "organizations_url": "https://api.github.com/users/chinitadelrey/orgs",
      "repos_url": "https://api.github.com/users/chinitadelrey/repos",
      "events_url": "https://api.github.com/users/chinitadelrey/events%7B/privacy%7D",
      "received_events_url": "https://api.github.com/users/chinitadelrey/received_events",
      "type": "User",
      "site_admin": false
    },
    "labels": [],
    "assignees": [],
    "author_association": "NONE",
    "locked": true,
    "active_lock_reason": "resolved",
    "comments": 3,
    "closed_at": "2018-04-20T15:26:19Z",
    "created_at": "2018-04-20T02:40:20Z",
    "updated_at": "2021-09-08T12:37:24Z"
  },
  "events": [
    {
      "event": "commented",
      "id": 382951959,
      "node_id": "MDEyOklzc3VlQ29tbWVudDM4Mjk1MTk1OQ==",
      "url": "https://api.github.com/repos/bitcoin/bitcoin/issues/comments/382951959",
      "actor": {
        "login": "chinitadelrey",
        "id": 26187282,
        "node_id": "MDQ6VXNlcjI2MTg3Mjgy",
        "avatar_url": "https://avatars.githubusercontent.com/u/26187282?v=4",
        "gravatar_id": "",
        "url": "https://api.github.com/users/chinitadelrey",
        "html_url": "https://github.com/chinitadelrey",
        "followers_url": "https://api.github.com/users/chinitadelrey/followers",
        "following_url": "https://api.github.com/users/chinitadelrey/following%7B/other_user%7D",
        "gists_url": "https://api.github.com/users/chinitadelrey/gists%7B/gist_id%7D",
        "starred_url": "https://api.github.com/users/chinitadelrey/starred%7B/owner%7D%7B/repo%7D",
        "subscriptions_url": "https://api.github.com/users/chinitadelrey/subscriptions",
        "organizations_url": "https://api.github.com/users/chinitadelrey/orgs",
        "repos_url": "https://api.github.com/users/chinitadelrey/repos",
        "events_url": "https://api.github.com/users/chinitadelrey/events%7B/privacy%7D",
        "received_events_url": "https://api.github.com/users/chinitadelrey/received_events",
        "type": "User",
        "site_admin": false
      },
      "commit_id": null,
      "commit_url": null,
      "created_at": "2018-04-20T02:44:43Z",
      "updated_at": "2018-04-20T02:59:21Z",
      "author_association": "NONE",
      "body": "For reference:\r\nRedeem script: \r\n```\r\nOP_IF 2 02e2887490bd940ef9122575269db1e4d91eeacc2fd85f61b06e443ddd6414736b 0281cd7c6b17e5a62786b2f1f4fa0f71126c39540129e7692dabde56d601c1fc3d 2 OP_CHECKMULTISIG OP_ELSE 4194305 OP_CHECKSEQUENCEVERIFY OP_DROP 02e2887490bd940ef9122575269db1e4d91eeacc2fd85f61b06e443ddd6414736b OP_CHECKSIG OP_ENDIF\r\n\r\n``` \r\nUTXO:\r\n\r\n```\r\n{\r\n  \"txid\": \"b936ac6fae0a018c37011bdd7e96c86bb16766bda90895a61c9578004b884632\",\r\n  \"hash\": \"b936ac6fae0a018c37011bdd7e96c86bb16766bda90895a61c9578004b884632\",\r\n  \"version\": 2,\r\n  \"size\": 643,\r\n  \"vsize\": 643,\r\n  \"locktime\": 100607,\r\n  \"vin\": [ .....truncated for readability....\r\n  ],\r\n  \"vout\": [\r\n    {\r\n      \"value\": 0.00006160,\r\n      \"n\": 0,\r\n      \"scriptPubKey\": {\r\n        \"asm\": \"OP_DUP OP_HASH160 027ba724d86c440d1dae010ac34052685c4a2be6 OP_EQUALVERIFY OP_CHECKSIG\",\r\n        \"hex\": \"76a914027ba724d86c440d1dae010ac34052685c4a2be688ac\",\r\n        \"reqSigs\": 1,\r\n        \"type\": \"pubkeyhash\",\r\n        \"addresses\": [\r\n          \"mfk5mzW3SSjmq3KNK13ofT6HK5CpfKsE11\"\r\n        ]\r\n      }\r\n    }, \r\n    {\r\n      \"value\": 50.00000000,\r\n      \"n\": 1,\r\n      \"scriptPubKey\": {\r\n        \"asm\": \"OP_HASH160 261387da290c821468d53808d769553436c7598b OP_EQUAL\",\r\n        \"hex\": \"a914261387da290c821468d53808d769553436c7598b87\",\r\n        \"reqSigs\": 1,\r\n        \"type\": \"scripthash\",\r\n        \"addresses\": [\r\n          \"2MviZ4b5jhR12KrZnEmhKuAadTwAiGbGRhG\"\r\n        ]\r\n      }\r\n    }\r\n  ],\r\n  \"hex\": \"02000000050328eba4b196e2348a6b3fedcaa41cac92c909e9af2deef173d7cd277d9b971d000000004847304402203b3fde03309d23343d597946e388353da3da1614fcc3333a3fdcdfb7d80f36090220748abab1ffe86dbfddf2dd0ecf66b0a4684b810e22ca1fd9b9c0e198be8c920701feffffff0d8bb61e36787bb223b49fc5d96b2f6fb9cdeaf9a483685a65d81ca5f32f41640000000049483045022100d773313f700ea9dcf5003ad0105de651d074fa57d8ab815eac4f3dcbdf1bc8ce0220182d5130c889caeb756997371eccc7c5582464c28db3f7919e9fce753be749fc01feffffff6af684700c7990f073e78d2d879b59af8a1f7b034abf6bb722f3cf74b3e0dc530000000049483045022100d2e029ed38a63c4e135b3cadd132336caeb85feb453131f5bd86f8d4b42856bf02202d5a6502f21e0bd66d526a9c0393b4debb7fd026eb3fc8f9c3c3ffd1c8052de801feffffffab71fa60831976cdd720119827313e0f8d90cd0162b2d2e01dcbdd86cc570df4000000004847304402206c1e471a1fae373b8cec2f0acd896f88774f180dfdd472d5de6a1870fbf46ceb022071332450c580562c39a1f3b194a5f0468f52e03b9c25bd2e04e0636129cb60cc01feffffffebb5726c700ef8919cc5580f33787366a810420103725c52f4387a5cca4975c8000000004847304402205f55bbe1638d6c67ec4d9ca83d921ef7e252d9a870988ae35d6f4c7270714a3b02204b219e2d2e1fe8664effc09e52c1d19f0c2fb668cab09dfebfd3b0979b7b0ae501feffffff0210180000000000001976a914027ba724d86c440d1dae010ac34052685c4a2be688ac00f2052a0100000017a914261387da290c821468d53808d769553436c7598b87ff880100\",\r\n  \"blockhash\": \"4c44fc4bc8228462fc57b250de219a62afc0791bf3145c6173cb8d69894fbcd5\",\r\n  \"confirmations\": 2,\r\n  \"time\": 1524166868,\r\n  \"blocktime\": 1524166868\r\n}\r\n```",
      "user": {
        "login": "chinitadelrey",
        "id": 26187282,
        "node_id": "MDQ6VXNlcjI2MTg3Mjgy",
        "avatar_url": "https://avatars.githubusercontent.com/u/26187282?v=4",
        "gravatar_id": "",
        "url": "https://api.github.com/users/chinitadelrey",
        "html_url": "https://github.com/chinitadelrey",
        "followers_url": "https://api.github.com/users/chinitadelrey/followers",
        "following_url": "https://api.github.com/users/chinitadelrey/following%7B/other_user%7D",
        "gists_url": "https://api.github.com/users/chinitadelrey/gists%7B/gist_id%7D",
        "starred_url": "https://api.github.com/users/chinitadelrey/starred%7B/owner%7D%7B/repo%7D",
        "subscriptions_url": "https://api.github.com/users/chinitadelrey/subscriptions",
        "organizations_url": "https://api.github.com/users/chinitadelrey/orgs",
        "repos_url": "https://api.github.com/users/chinitadelrey/repos",
        "events_url": "https://api.github.com/users/chinitadelrey/events%7B/privacy%7D",
        "received_events_url": "https://api.github.com/users/chinitadelrey/received_events",
        "type": "User",
        "site_admin": false
      },
      "html_url": "https://github.com/bitcoin/bitcoin/issues/13035#issuecomment-382951959",
      "issue_url": "https://api.github.com/repos/bitcoin/bitcoin/issues/13035"
    },
    {
      "event": "commented",
      "id": 383121367,
      "node_id": "MDEyOklzc3VlQ29tbWVudDM4MzEyMTM2Nw==",
      "url": "https://api.github.com/repos/bitcoin/bitcoin/issues/comments/383121367",
      "actor": {
        "login": "fivepiece",
        "id": 5624963,
        "node_id": "MDQ6VXNlcjU2MjQ5NjM=",
        "avatar_url": "https://avatars.githubusercontent.com/u/5624963?v=4",
        "gravatar_id": "",
        "url": "https://api.github.com/users/fivepiece",
        "html_url": "https://github.com/fivepiece",
        "followers_url": "https://api.github.com/users/fivepiece/followers",
        "following_url": "https://api.github.com/users/fivepiece/following%7B/other_user%7D",
        "gists_url": "https://api.github.com/users/fivepiece/gists%7B/gist_id%7D",
        "starred_url": "https://api.github.com/users/fivepiece/starred%7B/owner%7D%7B/repo%7D",
        "subscriptions_url": "https://api.github.com/users/fivepiece/subscriptions",
        "organizations_url": "https://api.github.com/users/fivepiece/orgs",
        "repos_url": "https://api.github.com/users/fivepiece/repos",
        "events_url": "https://api.github.com/users/fivepiece/events%7B/privacy%7D",
        "received_events_url": "https://api.github.com/users/fivepiece/received_events",
        "type": "User",
        "site_admin": false
      },
      "commit_id": null,
      "commit_url": null,
      "created_at": "2018-04-20T14:50:47Z",
      "updated_at": "2018-04-20T14:51:09Z",
      "author_association": "CONTRIBUTOR",
      "body": "You have an extraneous `0x00` in your scriptsig, right before the signature :\r\n\r\n```\r\n                                                                                    VV\r\n02000000013246884b0078951ca69508a9bd6667b16bc8967edd1b01378c010aae6fac36b901000000bf00473044022054b2af907f7be9a1719869db04acf5171c958fcbeda6b8bc8bd5052330fc88b602202592fe1bdbcdcb4b132505a265cf7d55efdf9d2b8de7a83ab786c29c7ab9ab9001004c7363522102e2887490bd940ef9122575269db1e4d91eeacc2fd85f61b06e443ddd6414736b210281cd7c6b17e5a62786b2f1f4fa0f71126c39540129e7692dabde56d601c1fc3d52ae6703010040b2752102e2887490bd940ef9122575269db1e4d91eeacc2fd85f61b06e443ddd6414736bac6801004000014060e429010000001976a91492d85871fe16cac1cf847ee1b88b9973907670e788ac00000000\r\n```\r\n\r\nProbably left there after you tried the 2-of-2 case.\r\nRemoving it and adjusting the scriptsig size should solve your spend of the `ELSE` branch with the `CHECKSIG` :\r\n\r\n```\r\n02000000013246884b0078951ca69508a9bd6667b16bc8967edd1b01378c010aae6fac36b901000000be473044022054b2af907f7be9a1719869db04acf5171c958fcbeda6b8bc8bd5052330fc88b602202592fe1bdbcdcb4b132505a265cf7d55efdf9d2b8de7a83ab786c29c7ab9ab9001004c7363522102e2887490bd940ef9122575269db1e4d91eeacc2fd85f61b06e443ddd6414736b210281cd7c6b17e5a62786b2f1f4fa0f71126c39540129e7692dabde56d601c1fc3d52ae6703010040b2752102e2887490bd940ef9122575269db1e4d91eeacc2fd85f61b06e443ddd6414736bac6801004000014060e429010000001976a91492d85871fe16cac1cf847ee1b88b9973907670e788ac00000000\r\n```",
      "user": {
        "login": "fivepiece",
        "id": 5624963,
        "node_id": "MDQ6VXNlcjU2MjQ5NjM=",
        "avatar_url": "https://avatars.githubusercontent.com/u/5624963?v=4",
        "gravatar_id": "",
        "url": "https://api.github.com/users/fivepiece",
        "html_url": "https://github.com/fivepiece",
        "followers_url": "https://api.github.com/users/fivepiece/followers",
        "following_url": "https://api.github.com/users/fivepiece/following%7B/other_user%7D",
        "gists_url": "https://api.github.com/users/fivepiece/gists%7B/gist_id%7D",
        "starred_url": "https://api.github.com/users/fivepiece/starred%7B/owner%7D%7B/repo%7D",
        "subscriptions_url": "https://api.github.com/users/fivepiece/subscriptions",
        "organizations_url": "https://api.github.com/users/fivepiece/orgs",
        "repos_url": "https://api.github.com/users/fivepiece/repos",
        "events_url": "https://api.github.com/users/fivepiece/events%7B/privacy%7D",
        "received_events_url": "https://api.github.com/users/fivepiece/received_events",
        "type": "User",
        "site_admin": false
      },
      "html_url": "https://github.com/bitcoin/bitcoin/issues/13035#issuecomment-383121367",
      "issue_url": "https://api.github.com/repos/bitcoin/bitcoin/issues/13035"
    },
    {
      "event": "commented",
      "id": 383132311,
      "node_id": "MDEyOklzc3VlQ29tbWVudDM4MzEzMjMxMQ==",
      "url": "https://api.github.com/repos/bitcoin/bitcoin/issues/comments/383132311",
      "actor": {
        "login": "chinitadelrey",
        "id": 26187282,
        "node_id": "MDQ6VXNlcjI2MTg3Mjgy",
        "avatar_url": "https://avatars.githubusercontent.com/u/26187282?v=4",
        "gravatar_id": "",
        "url": "https://api.github.com/users/chinitadelrey",
        "html_url": "https://github.com/chinitadelrey",
        "followers_url": "https://api.github.com/users/chinitadelrey/followers",
        "following_url": "https://api.github.com/users/chinitadelrey/following%7B/other_user%7D",
        "gists_url": "https://api.github.com/users/chinitadelrey/gists%7B/gist_id%7D",
        "starred_url": "https://api.github.com/users/chinitadelrey/starred%7B/owner%7D%7B/repo%7D",
        "subscriptions_url": "https://api.github.com/users/chinitadelrey/subscriptions",
        "organizations_url": "https://api.github.com/users/chinitadelrey/orgs",
        "repos_url": "https://api.github.com/users/chinitadelrey/repos",
        "events_url": "https://api.github.com/users/chinitadelrey/events%7B/privacy%7D",
        "received_events_url": "https://api.github.com/users/chinitadelrey/received_events",
        "type": "User",
        "site_admin": false
      },
      "commit_id": null,
      "commit_url": null,
      "created_at": "2018-04-20T15:26:06Z",
      "updated_at": "2018-04-20T15:26:06Z",
      "author_association": "NONE",
      "body": "You are a star! Got it now. \r\nThank you!",
      "user": {
        "login": "chinitadelrey",
        "id": 26187282,
        "node_id": "MDQ6VXNlcjI2MTg3Mjgy",
        "avatar_url": "https://avatars.githubusercontent.com/u/26187282?v=4",
        "gravatar_id": "",
        "url": "https://api.github.com/users/chinitadelrey",
        "html_url": "https://github.com/chinitadelrey",
        "followers_url": "https://api.github.com/users/chinitadelrey/followers",
        "following_url": "https://api.github.com/users/chinitadelrey/following%7B/other_user%7D",
        "gists_url": "https://api.github.com/users/chinitadelrey/gists%7B/gist_id%7D",
        "starred_url": "https://api.github.com/users/chinitadelrey/starred%7B/owner%7D%7B/repo%7D",
        "subscriptions_url": "https://api.github.com/users/chinitadelrey/subscriptions",
        "organizations_url": "https://api.github.com/users/chinitadelrey/orgs",
        "repos_url": "https://api.github.com/users/chinitadelrey/repos",
        "events_url": "https://api.github.com/users/chinitadelrey/events%7B/privacy%7D",
        "received_events_url": "https://api.github.com/users/chinitadelrey/received_events",
        "type": "User",
        "site_admin": false
      },
      "html_url": "https://github.com/bitcoin/bitcoin/issues/13035#issuecomment-383132311",
      "issue_url": "https://api.github.com/repos/bitcoin/bitcoin/issues/13035"
    },
    {
      "event": "closed",
      "id": 1586430481,
      "node_id": "MDExOkNsb3NlZEV2ZW50MTU4NjQzMDQ4MQ==",
      "url": "https://api.github.com/repos/bitcoin/bitcoin/issues/events/1586430481",
      "actor": {
        "login": "chinitadelrey",
        "id": 26187282,
        "node_id": "MDQ6VXNlcjI2MTg3Mjgy",
        "avatar_url": "https://avatars.githubusercontent.com/u/26187282?v=4",
        "gravatar_id": "",
        "url": "https://api.github.com/users/chinitadelrey",
        "html_url": "https://github.com/chinitadelrey",
        "followers_url": "https://api.github.com/users/chinitadelrey/followers",
        "following_url": "https://api.github.com/users/chinitadelrey/following%7B/other_user%7D",
        "gists_url": "https://api.github.com/users/chinitadelrey/gists%7B/gist_id%7D",
        "starred_url": "https://api.github.com/users/chinitadelrey/starred%7B/owner%7D%7B/repo%7D",
        "subscriptions_url": "https://api.github.com/users/chinitadelrey/subscriptions",
        "organizations_url": "https://api.github.com/users/chinitadelrey/orgs",
        "repos_url": "https://api.github.com/users/chinitadelrey/repos",
        "events_url": "https://api.github.com/users/chinitadelrey/events%7B/privacy%7D",
        "received_events_url": "https://api.github.com/users/chinitadelrey/received_events",
        "type": "User",
        "site_admin": false
      },
      "commit_id": null,
      "commit_url": null,
      "created_at": "2018-04-20T15:26:20Z"
    },
    {
      "event": "locked",
      "id": 5272029130,
      "node_id": "LOE_lADOABII584S12fZzwAAAAE6PMfK",
      "url": "https://api.github.com/repos/bitcoin/bitcoin/issues/events/5272029130",
      "actor": {
        "login": "DrahtBot",
        "id": 39886733,
        "node_id": "MDQ6VXNlcjM5ODg2NzMz",
        "avatar_url": "https://avatars.githubusercontent.com/u/39886733?v=4",
        "gravatar_id": "",
        "url": "https://api.github.com/users/DrahtBot",
        "html_url": "https://github.com/DrahtBot",
        "followers_url": "https://api.github.com/users/DrahtBot/followers",
        "following_url": "https://api.github.com/users/DrahtBot/following%7B/other_user%7D",
        "gists_url": "https://api.github.com/users/DrahtBot/gists%7B/gist_id%7D",
        "starred_url": "https://api.github.com/users/DrahtBot/starred%7B/owner%7D%7B/repo%7D",
        "subscriptions_url": "https://api.github.com/users/DrahtBot/subscriptions",
        "organizations_url": "https://api.github.com/users/DrahtBot/orgs",
        "repos_url": "https://api.github.com/users/DrahtBot/repos",
        "events_url": "https://api.github.com/users/DrahtBot/events%7B/privacy%7D",
        "received_events_url": "https://api.github.com/users/DrahtBot/received_events",
        "type": "User",
        "site_admin": false
      },
      "commit_id": null,
      "commit_url": null,
      "created_at": "2021-09-08T12:37:24Z",
      "lock_reason": "resolved"
    }
  ]
}