{
  "type": "issue",
  "issue": {
    "id": 484836881,
    "node_id": "MDU6SXNzdWU0ODQ4MzY4ODE=",
    "url": "https://api.github.com/repos/bitcoin/bitcoin/issues/16712",
    "repository_url": "https://api.github.com/repos/bitcoin/bitcoin",
    "labels_url": "https://api.github.com/repos/bitcoin/bitcoin/issues/16712/labels%7B/name%7D",
    "comments_url": "https://api.github.com/repos/bitcoin/bitcoin/issues/16712/comments",
    "events_url": "https://api.github.com/repos/bitcoin/bitcoin/issues/16712/events",
    "html_url": "https://github.com/bitcoin/bitcoin/issues/16712",
    "number": 16712,
    "state": "open",
    "state_reason": null,
    "title": "Signature must be zero for failed CHECK(MULTI)SIG operation",
    "body": "## start bicoind\r\n```\r\nbitcoind -rpcuser=test -rpcpassword=test -rpcport=18443 -rpcbind=0.0.0.0 -datadir=btc_private -txindex -regtest=1 -listenonion=0 -debug -daemon\r\n```\r\n```\r\nalias btccli=\"bitcoin-cli -regtest -rpcuser=test -rpcpassword=test\"\r\n```\r\n\r\n## get 3 new address \r\n```\r\naddress: 2N8VaTaHNq4GPt1rbvaEAEPFwoSZ8CgDUM9\r\npubkey: 0355479b300b217d781cf058941cc1677283c24460665d27dbfced339b29428c93\r\nprivatekey: cPZdtTsenRcKbmthFBcQB4QerVSut6Z9hMPyKo6zMeGRBGSxDGMM\r\n\r\naddress: 2N3yHeRmfNaqsR5rBVUk4fZhmfmiZswH5Rh\r\npubkey: 021e2ef4e12c9d13fc45e709469de0ea8fe556bdbd436f13e936346f6dd267455c\r\nprivatekey: cQxcb3foiTWKBfKT1B8fxWALzgD1SpS2QM6JcsCdFnXM5ebY5zNX\r\n\r\naddress: 2N7T4f6CAEHPyV4RfUD6NUz36AzT7J48nrz\r\npubkey: 033bebbfa8539df7d9b381d6bb34fabe3fc660c3c7a2f69047ac850575597ee8de\r\nprivatekey: cNpLyk4X6PSyUDiJ7tPwQXRHzYPXsVCzg72g47ZW5yVyfVkmqWSt\r\n```\r\n## get multisig address\r\n```\r\nbtccli addmultisigaddress 2 '[\"2N8VaTaHNq4GPt1rbvaEAEPFwoSZ8CgDUM9\",\"2N3yHeRmfNaqsR5rBVUk4fZhmfmiZswH5Rh\",\"2N7T4f6CAEHPyV4RfUD6NUz36AzT7J48nrz\"]'\r\n\r\n{\r\n  \"address\": \"2MwabVCD88Uz7gBWyUd4mA2cXyEBMuN7w93\",\r\n  \"redeemScript\": \"52210355479b300b217d781cf058941cc1677283c24460665d27dbfced339b29428c9321021e2ef4e12c9d13fc45e709469de0ea8fe556bdbd436f13e936346f6dd267455c21033bebbfa8539df7d9b381d6bb34fabe3fc660c3c7a2f69047ac850575597ee8de53ae\"\r\n}\r\n```\r\n\r\n```\r\nbtccli listunspent 1 99999999 '[\"2MwabVCD88Uz7gBWyUd4mA2cXyEBMuN7w93\"]'\r\n\r\n[\r\n  {\r\n    \"txid\": \"66a370cb1fa86f706d3c1ff581ee80ab0c6ef69403cb09ba2eb262a27e4c0643\",\r\n    \"vout\": 0,\r\n    \"address\": \"2MwabVCD88Uz7gBWyUd4mA2cXyEBMuN7w93\",\r\n    \"label\": \"\",\r\n    \"redeemScript\": \"0020e4a6d84b97591a2812a4909e6cfc35429975957e674c4e92ad9054b3cca445bd\",\r\n    \"witnessScript\": \"52210355479b300b217d781cf058941cc1677283c24460665d27dbfced339b29428c9321021e2ef4e12c9d13fc45e709469de0ea8fe556bdbd436f13e936346f6dd267455c21033bebbfa8539df7d9b381d6bb34fabe3fc660c3c7a2f69047ac850575597ee8de53ae\",\r\n    \"scriptPubKey\": \"a9142f8a5a37a7ff99fd8671d2dcd7e62d7b4d0fd97b87\",\r\n    \"amount\": 50.00000000,\r\n    \"confirmations\": 102,\r\n    \"spendable\": true,\r\n    \"solvable\": true,\r\n    \"desc\": \"sh(wsh(multi(2,[696a000f/0'/0'/0']0355479b300b217d781cf058941cc1677283c24460665d27dbfced339b29428c93,[696a000f/0'/0'/1']021e2ef4e12c9d13fc45e709469de0ea8fe556bdbd436f13e936346f6dd267455c,[696a000f/0'/0'/2']033bebbfa8539df7d9b381d6bb34fabe3fc660c3c7a2f69047ac850575597ee8de)))#3cvzvrcg\",\r\n    \"safe\": true\r\n  },\r\n  {\r\n    \"txid\": \"9eaa9439244b18def82abd3f85aca817126653d20add52ad2208aaa4e4f43891\",\r\n    \"vout\": 0,\r\n    \"address\": \"2MwabVCD88Uz7gBWyUd4mA2cXyEBMuN7w93\",\r\n    \"label\": \"\",\r\n    \"redeemScript\": \"0020e4a6d84b97591a2812a4909e6cfc35429975957e674c4e92ad9054b3cca445bd\",\r\n    \"witnessScript\": \"52210355479b300b217d781cf058941cc1677283c24460665d27dbfced339b29428c9321021e2ef4e12c9d13fc45e709469de0ea8fe556bdbd436f13e936346f6dd267455c21033bebbfa8539df7d9b381d6bb34fabe3fc660c3c7a2f69047ac850575597ee8de53ae\",\r\n    \"scriptPubKey\": \"a9142f8a5a37a7ff99fd8671d2dcd7e62d7b4d0fd97b87\",\r\n    \"amount\": 50.00000000,\r\n    \"confirmations\": 101,\r\n    \"spendable\": true,\r\n    \"solvable\": true,\r\n    \"desc\": \"sh(wsh(multi(2,[696a000f/0'/0'/0']0355479b300b217d781cf058941cc1677283c24460665d27dbfced339b29428c93,[696a000f/0'/0'/1']021e2ef4e12c9d13fc45e709469de0ea8fe556bdbd436f13e936346f6dd267455c,[696a000f/0'/0'/2']033bebbfa8539df7d9b381d6bb34fabe3fc660c3c7a2f69047ac850575597ee8de)))#3cvzvrcg\",\r\n    \"safe\": true\r\n  }\r\n]\r\n```\r\n\r\n```\r\nbtccli createrawtransaction '[{\"txid\":\"9eaa9439244b18def82abd3f85aca817126653d20add52ad2208aaa4e4f43891\",\"vout\":0,\"scriptPubKey\":\"a9142f8a5a37a7ff99fd8671d2dcd7e62d7b4d0fd97b87\",\"redeemScript\":\"52210355479b300b217d781cf058941cc1677283c24460665d27dbfced339b29428c9321021e2ef4e12c9d13fc45e709469de0ea8fe556bdbd436f13e936346f6dd267455c21033bebbfa8539df7d9b381d6bb34fabe3fc660c3c7a2f69047ac850575597ee8de53ae\"}]' '{\"2MzycLC1fr83bHGiGhARtYbkaQ8iXoULN76\":49.999}'\r\n\r\n02000000019138f4e4a4aa0822ad52dd0ad253661217a8ac853fbd2af8de184b243994aa9e0000000000ffffffff01606b042a0100000017a91454cd00871f090949693d111080b290b18db4637e8700000000\r\n```\r\n\r\n```\r\nbtccli signrawtransactionwithkey '02000000019138f4e4a4aa0822ad52dd0ad253661217a8ac853fbd2af8de184b243994aa9e0000000000ffffffff01606b042a0100000017a91454cd00871f090949693d111080b290b18db4637e8700000000' '[\"cPZdtTsenRcKbmthFBcQB4QerVSut6Z9hMPyKo6zMeGRBGSxDGMM\"]' '[{\"txid\":\"9eaa9439244b18def82abd3f85aca817126653d20add52ad2208aaa4e4f43891\",\"vout\":0,\"scriptPubKey\":\"a9142f8a5a37a7ff99fd8671d2dcd7e62d7b4d0fd97b87\",\"redeemScript\":\"52210355479b300b217d781cf058941cc1677283c24460665d27dbfced339b29428c9321021e2ef4e12c9d13fc45e709469de0ea8fe556bdbd436f13e936346f6dd267455c21033bebbfa8539df7d9b381d6bb34fabe3fc660c3c7a2f69047ac850575597ee8de53ae\",\"amount\":50}]'\r\n\r\n{\r\n  \"hex\": \"020000000001019138f4e4a4aa0822ad52dd0ad253661217a8ac853fbd2af8de184b243994aa9e0000000023220020e4a6d84b97591a2812a4909e6cfc35429975957e674c4e92ad9054b3cca445bdffffffff01606b042a0100000017a91454cd00871f090949693d111080b290b18db4637e87040047304402205ac40d5e704b78d044798e0b8b7f8bc7afb259fb5806bf0e4cb387f3d2d2dfd2022052c39670918c38cf3d5815f4d6c50af88b84614715043b3f92e4fcbce29a228201006952210355479b300b217d781cf058941cc1677283c24460665d27dbfced339b29428c9321021e2ef4e12c9d13fc45e709469de0ea8fe556bdbd436f13e936346f6dd267455c21033bebbfa8539df7d9b381d6bb34fabe3fc660c3c7a2f69047ac850575597ee8de53ae00000000\",\r\n  \"complete\": false,\r\n  \"errors\": [\r\n    {\r\n      \"txid\": \"9eaa9439244b18def82abd3f85aca817126653d20add52ad2208aaa4e4f43891\",\r\n      \"vout\": 0,\r\n      \"witness\": [\r\n        \"\",\r\n        \"304402205ac40d5e704b78d044798e0b8b7f8bc7afb259fb5806bf0e4cb387f3d2d2dfd2022052c39670918c38cf3d5815f4d6c50af88b84614715043b3f92e4fcbce29a228201\",\r\n        \"\",\r\n        \"52210355479b300b217d781cf058941cc1677283c24460665d27dbfced339b29428c9321021e2ef4e12c9d13fc45e709469de0ea8fe556bdbd436f13e936346f6dd267455c21033bebbfa8539df7d9b381d6bb34fabe3fc660c3c7a2f69047ac850575597ee8de53ae\"\r\n      ],\r\n      \"scriptSig\": \"220020e4a6d84b97591a2812a4909e6cfc35429975957e674c4e92ad9054b3cca445bd\",\r\n      \"sequence\": 4294967295,\r\n      \"error\": \"Signature must be zero for failed CHECK(MULTI)SIG operation\"\r\n    }\r\n  ]\r\n}\r\n```\r\n\r\n```\r\nbtccli signrawtransactionwithkey '020000000001019138f4e4a4aa0822ad52dd0ad253661217a8ac853fbd2af8de184b243994aa9e0000000023220020e4a6d84b97591a2812a4909e6cfc35429975957e674c4e92ad9054b3cca445bdffffffff01606b042a0100000017a91454cd00871f090949693d111080b290b18db4637e87040047304402205ac40d5e704b78d044798e0b8b7f8bc7afb259fb5806bf0e4cb387f3d2d2dfd2022052c39670918c38cf3d5815f4d6c50af88b84614715043b3f92e4fcbce29a228201006952210355479b300b217d781cf058941cc1677283c24460665d27dbfced339b29428c9321021e2ef4e12c9d13fc45e709469de0ea8fe556bdbd436f13e936346f6dd267455c21033bebbfa8539df7d9b381d6bb34fabe3fc660c3c7a2f69047ac850575597ee8de53ae00000000' '[\"cQxcb3foiTWKBfKT1B8fxWALzgD1SpS2QM6JcsCdFnXM5ebY5zNX\"]' '[{\"txid\":\"9eaa9439244b18def82abd3f85aca817126653d20add52ad2208aaa4e4f43891\",\"vout\":0,\"scriptPubKey\":\"a9142f8a5a37a7ff99fd8671d2dcd7e62d7b4d0fd97b87\",\"redeemScript\":\"52210355479b300b217d781cf058941cc1677283c24460665d27dbfced339b29428c9321021e2ef4e12c9d13fc45e709469de0ea8fe556bdbd436f13e936346f6dd267455c21033bebbfa8539df7d9b381d6bb34fabe3fc660c3c7a2f69047ac850575597ee8de53ae\",\"amount\":50}]'\r\n\r\n{\r\n  \"hex\": \"020000000001019138f4e4a4aa0822ad52dd0ad253661217a8ac853fbd2af8de184b243994aa9e0000000023220020e4a6d84b97591a2812a4909e6cfc35429975957e674c4e92ad9054b3cca445bdffffffff01606b042a0100000017a91454cd00871f090949693d111080b290b18db4637e87040047304402205ac40d5e704b78d044798e0b8b7f8bc7afb259fb5806bf0e4cb387f3d2d2dfd2022052c39670918c38cf3d5815f4d6c50af88b84614715043b3f92e4fcbce29a228201473044022072d263ac076bb5647c9cbcefc7fda411a9208cd1a8a75148b090a24b929ac590022034a230442504d91fe561004e64b0eba403b80e42afb12afaa7808b916ff3e54a016952210355479b300b217d781cf058941cc1677283c24460665d27dbfced339b29428c9321021e2ef4e12c9d13fc45e709469de0ea8fe556bdbd436f13e936346f6dd267455c21033bebbfa8539df7d9b381d6bb34fabe3fc660c3c7a2f69047ac850575597ee8de53ae00000000\",\r\n  \"complete\": true\r\n}\r\n```\r\n\r\n```\r\nbtccli sendrawtransaction 020000000001019138f4e4a4aa0822ad52dd0ad253661217a8ac853fbd2af8de184b243994aa9e0000000023220020e4a6d84b97591a2812a4909e6cfc35429975957e674c4e92ad9054b3cca445bdffffffff01606b042a0100000017a91454cd00871f090949693d111080b290b18db4637e87040047304402205ac40d5e704b78d044798e0b8b7f8bc7afb259fb5806bf0e4cb387f3d2d2dfd2022052c39670918c38cf3d5815f4d6c50af88b84614715043b3f92e4fcbce29a228201473044022072d263ac076bb5647c9cbcefc7fda411a9208cd1a8a75148b090a24b929ac590022034a230442504d91fe561004e64b0eba403b80e42afb12afaa7808b916ff3e54a016952210355479b300b217d781cf058941cc1677283c24460665d27dbfced339b29428c9321021e2ef4e12c9d13fc45e709469de0ea8fe556bdbd436f13e936346f6dd267455c21033bebbfa8539df7d9b381d6bb34fabe3fc660c3c7a2f69047ac850575597ee8de53ae00000000\r\nerror code: -26\r\nerror message:\r\nnon-mandatory-script-verify-flag (Signature must be zero for failed CHECK(MULTI)SIG operation) (code 64)\r\n```\r\n\r\nwhy i got a error like above? i need help, thanks!\r\n",
    "user": {
      "login": "xiangjianmeng",
      "id": 18412271,
      "node_id": "MDQ6VXNlcjE4NDEyMjcx",
      "avatar_url": "https://avatars.githubusercontent.com/u/18412271?v=4",
      "gravatar_id": "",
      "url": "https://api.github.com/users/xiangjianmeng",
      "html_url": "https://github.com/xiangjianmeng",
      "followers_url": "https://api.github.com/users/xiangjianmeng/followers",
      "following_url": "https://api.github.com/users/xiangjianmeng/following%7B/other_user%7D",
      "gists_url": "https://api.github.com/users/xiangjianmeng/gists%7B/gist_id%7D",
      "starred_url": "https://api.github.com/users/xiangjianmeng/starred%7B/owner%7D%7B/repo%7D",
      "subscriptions_url": "https://api.github.com/users/xiangjianmeng/subscriptions",
      "organizations_url": "https://api.github.com/users/xiangjianmeng/orgs",
      "repos_url": "https://api.github.com/users/xiangjianmeng/repos",
      "events_url": "https://api.github.com/users/xiangjianmeng/events%7B/privacy%7D",
      "received_events_url": "https://api.github.com/users/xiangjianmeng/received_events",
      "type": "User",
      "site_admin": false,
      "name": null,
      "patch_url": null
    },
    "labels": [
      {
        "id": 149424,
        "node_id": "MDU6TGFiZWwxNDk0MjQ=",
        "url": "https://api.github.com/repos/bitcoin/bitcoin/labels/Wallet",
        "name": "Wallet",
        "color": "08a781",
        "default": false
      },
      {
        "id": 98279177,
        "node_id": "MDU6TGFiZWw5ODI3OTE3Nw==",
        "url": "https://api.github.com/repos/bitcoin/bitcoin/labels/RPC/REST/ZMQ",
        "name": "RPC/REST/ZMQ",
        "color": "0052cc",
        "default": false
      }
    ],
    "assignees": [],
    "author_association": "NONE",
    "locked": false,
    "comments": 3,
    "created_at": "2019-08-24T15:56:58Z",
    "updated_at": "2026-01-16T11:45:07Z"
  },
  "events": [
    {
      "event": "commented",
      "id": 524642067,
      "node_id": "MDEyOklzc3VlQ29tbWVudDUyNDY0MjA2Nw==",
      "url": "https://api.github.com/repos/bitcoin/bitcoin/issues/comments/524642067",
      "actor": {
        "login": "maflcko",
        "id": 6399679,
        "node_id": "MDQ6VXNlcjYzOTk2Nzk=",
        "avatar_url": "https://avatars.githubusercontent.com/u/6399679?v=4",
        "gravatar_id": "",
        "url": "https://api.github.com/users/maflcko",
        "html_url": "https://github.com/maflcko",
        "followers_url": "https://api.github.com/users/maflcko/followers",
        "following_url": "https://api.github.com/users/maflcko/following%7B/other_user%7D",
        "gists_url": "https://api.github.com/users/maflcko/gists%7B/gist_id%7D",
        "starred_url": "https://api.github.com/users/maflcko/starred%7B/owner%7D%7B/repo%7D",
        "subscriptions_url": "https://api.github.com/users/maflcko/subscriptions",
        "organizations_url": "https://api.github.com/users/maflcko/orgs",
        "repos_url": "https://api.github.com/users/maflcko/repos",
        "events_url": "https://api.github.com/users/maflcko/events%7B/privacy%7D",
        "received_events_url": "https://api.github.com/users/maflcko/received_events",
        "type": "User",
        "site_admin": false,
        "name": null,
        "patch_url": null
      },
      "commit_id": null,
      "commit_url": null,
      "created_at": "2019-08-25T16:08:47Z",
      "updated_at": "2019-08-25T16:08:47Z",
      "author_association": "MEMBER",
      "body": "Slightly related: #11891",
      "user": {
        "login": "maflcko",
        "id": 6399679,
        "node_id": "MDQ6VXNlcjYzOTk2Nzk=",
        "avatar_url": "https://avatars.githubusercontent.com/u/6399679?v=4",
        "gravatar_id": "",
        "url": "https://api.github.com/users/maflcko",
        "html_url": "https://github.com/maflcko",
        "followers_url": "https://api.github.com/users/maflcko/followers",
        "following_url": "https://api.github.com/users/maflcko/following%7B/other_user%7D",
        "gists_url": "https://api.github.com/users/maflcko/gists%7B/gist_id%7D",
        "starred_url": "https://api.github.com/users/maflcko/starred%7B/owner%7D%7B/repo%7D",
        "subscriptions_url": "https://api.github.com/users/maflcko/subscriptions",
        "organizations_url": "https://api.github.com/users/maflcko/orgs",
        "repos_url": "https://api.github.com/users/maflcko/repos",
        "events_url": "https://api.github.com/users/maflcko/events%7B/privacy%7D",
        "received_events_url": "https://api.github.com/users/maflcko/received_events",
        "type": "User",
        "site_admin": false,
        "name": null,
        "patch_url": null
      },
      "html_url": "https://github.com/bitcoin/bitcoin/issues/16712#issuecomment-524642067",
      "issue_url": "https://api.github.com/repos/bitcoin/bitcoin/issues/16712"
    },
    {
      "event": "commented",
      "id": 524695626,
      "node_id": "MDEyOklzc3VlQ29tbWVudDUyNDY5NTYyNg==",
      "url": "https://api.github.com/repos/bitcoin/bitcoin/issues/comments/524695626",
      "actor": {
        "login": "xiangjianmeng",
        "id": 18412271,
        "node_id": "MDQ6VXNlcjE4NDEyMjcx",
        "avatar_url": "https://avatars.githubusercontent.com/u/18412271?v=4",
        "gravatar_id": "",
        "url": "https://api.github.com/users/xiangjianmeng",
        "html_url": "https://github.com/xiangjianmeng",
        "followers_url": "https://api.github.com/users/xiangjianmeng/followers",
        "following_url": "https://api.github.com/users/xiangjianmeng/following%7B/other_user%7D",
        "gists_url": "https://api.github.com/users/xiangjianmeng/gists%7B/gist_id%7D",
        "starred_url": "https://api.github.com/users/xiangjianmeng/starred%7B/owner%7D%7B/repo%7D",
        "subscriptions_url": "https://api.github.com/users/xiangjianmeng/subscriptions",
        "organizations_url": "https://api.github.com/users/xiangjianmeng/orgs",
        "repos_url": "https://api.github.com/users/xiangjianmeng/repos",
        "events_url": "https://api.github.com/users/xiangjianmeng/events%7B/privacy%7D",
        "received_events_url": "https://api.github.com/users/xiangjianmeng/received_events",
        "type": "User",
        "site_admin": false,
        "name": null,
        "patch_url": null
      },
      "commit_id": null,
      "commit_url": null,
      "created_at": "2019-08-26T02:47:17Z",
      "updated_at": "2019-08-26T02:47:17Z",
      "author_association": "NONE",
      "body": "> Slightly related: #11891\r\nbut i dont see the  solution of #11891 at last\r\n",
      "user": {
        "login": "xiangjianmeng",
        "id": 18412271,
        "node_id": "MDQ6VXNlcjE4NDEyMjcx",
        "avatar_url": "https://avatars.githubusercontent.com/u/18412271?v=4",
        "gravatar_id": "",
        "url": "https://api.github.com/users/xiangjianmeng",
        "html_url": "https://github.com/xiangjianmeng",
        "followers_url": "https://api.github.com/users/xiangjianmeng/followers",
        "following_url": "https://api.github.com/users/xiangjianmeng/following%7B/other_user%7D",
        "gists_url": "https://api.github.com/users/xiangjianmeng/gists%7B/gist_id%7D",
        "starred_url": "https://api.github.com/users/xiangjianmeng/starred%7B/owner%7D%7B/repo%7D",
        "subscriptions_url": "https://api.github.com/users/xiangjianmeng/subscriptions",
        "organizations_url": "https://api.github.com/users/xiangjianmeng/orgs",
        "repos_url": "https://api.github.com/users/xiangjianmeng/repos",
        "events_url": "https://api.github.com/users/xiangjianmeng/events%7B/privacy%7D",
        "received_events_url": "https://api.github.com/users/xiangjianmeng/received_events",
        "type": "User",
        "site_admin": false,
        "name": null,
        "patch_url": null
      },
      "html_url": "https://github.com/bitcoin/bitcoin/issues/16712#issuecomment-524695626",
      "issue_url": "https://api.github.com/repos/bitcoin/bitcoin/issues/16712"
    },
    {
      "event": "commented",
      "id": 3759663977,
      "node_id": "IC_kwDOABII587gF-tp",
      "url": "https://api.github.com/repos/bitcoin/bitcoin/issues/comments/3759663977",
      "actor": {
        "login": "willcl-ark",
        "id": 6606587,
        "node_id": "MDQ6VXNlcjY2MDY1ODc=",
        "avatar_url": "https://avatars.githubusercontent.com/u/6606587?v=4",
        "gravatar_id": "",
        "url": "https://api.github.com/users/willcl-ark",
        "html_url": "https://github.com/willcl-ark",
        "followers_url": "https://api.github.com/users/willcl-ark/followers",
        "following_url": "https://api.github.com/users/willcl-ark/following%7B/other_user%7D",
        "gists_url": "https://api.github.com/users/willcl-ark/gists%7B/gist_id%7D",
        "starred_url": "https://api.github.com/users/willcl-ark/starred%7B/owner%7D%7B/repo%7D",
        "subscriptions_url": "https://api.github.com/users/willcl-ark/subscriptions",
        "organizations_url": "https://api.github.com/users/willcl-ark/orgs",
        "repos_url": "https://api.github.com/users/willcl-ark/repos",
        "events_url": "https://api.github.com/users/willcl-ark/events%7B/privacy%7D",
        "received_events_url": "https://api.github.com/users/willcl-ark/received_events",
        "type": "User",
        "site_admin": false,
        "name": null,
        "patch_url": null
      },
      "commit_id": null,
      "commit_url": null,
      "created_at": "2026-01-16T11:42:45Z",
      "updated_at": "2026-01-16T11:42:45Z",
      "author_association": "MEMBER",
      "body": "I dont' think this happens any more when using descriptor wallets using the `createmultisig` flow.\n\n@achow101 perhaps you could confirm whether we want to keep this open any longer?",
      "user": {
        "login": "willcl-ark",
        "id": 6606587,
        "node_id": "MDQ6VXNlcjY2MDY1ODc=",
        "avatar_url": "https://avatars.githubusercontent.com/u/6606587?v=4",
        "gravatar_id": "",
        "url": "https://api.github.com/users/willcl-ark",
        "html_url": "https://github.com/willcl-ark",
        "followers_url": "https://api.github.com/users/willcl-ark/followers",
        "following_url": "https://api.github.com/users/willcl-ark/following%7B/other_user%7D",
        "gists_url": "https://api.github.com/users/willcl-ark/gists%7B/gist_id%7D",
        "starred_url": "https://api.github.com/users/willcl-ark/starred%7B/owner%7D%7B/repo%7D",
        "subscriptions_url": "https://api.github.com/users/willcl-ark/subscriptions",
        "organizations_url": "https://api.github.com/users/willcl-ark/orgs",
        "repos_url": "https://api.github.com/users/willcl-ark/repos",
        "events_url": "https://api.github.com/users/willcl-ark/events%7B/privacy%7D",
        "received_events_url": "https://api.github.com/users/willcl-ark/received_events",
        "type": "User",
        "site_admin": false,
        "name": null,
        "patch_url": null
      },
      "html_url": "https://github.com/bitcoin/bitcoin/issues/16712#issuecomment-3759663977",
      "issue_url": "https://api.github.com/repos/bitcoin/bitcoin/issues/16712"
    },
    {
      "event": "mentioned",
      "id": 22093791076,
      "node_id": "MEE_lADOABII584c5gYRzwAAAAUk5H9k",
      "url": "https://api.github.com/repos/bitcoin/bitcoin/issues/events/22093791076",
      "actor": {
        "login": "achow101",
        "id": 3782274,
        "node_id": "MDQ6VXNlcjM3ODIyNzQ=",
        "avatar_url": "https://avatars.githubusercontent.com/u/3782274?v=4",
        "gravatar_id": "",
        "url": "https://api.github.com/users/achow101",
        "html_url": "https://github.com/achow101",
        "followers_url": "https://api.github.com/users/achow101/followers",
        "following_url": "https://api.github.com/users/achow101/following%7B/other_user%7D",
        "gists_url": "https://api.github.com/users/achow101/gists%7B/gist_id%7D",
        "starred_url": "https://api.github.com/users/achow101/starred%7B/owner%7D%7B/repo%7D",
        "subscriptions_url": "https://api.github.com/users/achow101/subscriptions",
        "organizations_url": "https://api.github.com/users/achow101/orgs",
        "repos_url": "https://api.github.com/users/achow101/repos",
        "events_url": "https://api.github.com/users/achow101/events%7B/privacy%7D",
        "received_events_url": "https://api.github.com/users/achow101/received_events",
        "type": "User",
        "site_admin": false,
        "name": null,
        "patch_url": null
      },
      "commit_id": null,
      "commit_url": null,
      "created_at": "2026-01-16T11:42:46Z"
    },
    {
      "event": "subscribed",
      "id": 22093791094,
      "node_id": "SE_lADOABII584c5gYRzwAAAAUk5H92",
      "url": "https://api.github.com/repos/bitcoin/bitcoin/issues/events/22093791094",
      "actor": {
        "login": "achow101",
        "id": 3782274,
        "node_id": "MDQ6VXNlcjM3ODIyNzQ=",
        "avatar_url": "https://avatars.githubusercontent.com/u/3782274?v=4",
        "gravatar_id": "",
        "url": "https://api.github.com/users/achow101",
        "html_url": "https://github.com/achow101",
        "followers_url": "https://api.github.com/users/achow101/followers",
        "following_url": "https://api.github.com/users/achow101/following%7B/other_user%7D",
        "gists_url": "https://api.github.com/users/achow101/gists%7B/gist_id%7D",
        "starred_url": "https://api.github.com/users/achow101/starred%7B/owner%7D%7B/repo%7D",
        "subscriptions_url": "https://api.github.com/users/achow101/subscriptions",
        "organizations_url": "https://api.github.com/users/achow101/orgs",
        "repos_url": "https://api.github.com/users/achow101/repos",
        "events_url": "https://api.github.com/users/achow101/events%7B/privacy%7D",
        "received_events_url": "https://api.github.com/users/achow101/received_events",
        "type": "User",
        "site_admin": false,
        "name": null,
        "patch_url": null
      },
      "commit_id": null,
      "commit_url": null,
      "created_at": "2026-01-16T11:42:47Z"
    },
    {
      "event": "labeled",
      "id": 22093792004,
      "node_id": "LE_lADOABII584c5gYRzwAAAAUk5IME",
      "url": "https://api.github.com/repos/bitcoin/bitcoin/issues/events/22093792004",
      "actor": {
        "login": "willcl-ark",
        "id": 6606587,
        "node_id": "MDQ6VXNlcjY2MDY1ODc=",
        "avatar_url": "https://avatars.githubusercontent.com/u/6606587?v=4",
        "gravatar_id": "",
        "url": "https://api.github.com/users/willcl-ark",
        "html_url": "https://github.com/willcl-ark",
        "followers_url": "https://api.github.com/users/willcl-ark/followers",
        "following_url": "https://api.github.com/users/willcl-ark/following%7B/other_user%7D",
        "gists_url": "https://api.github.com/users/willcl-ark/gists%7B/gist_id%7D",
        "starred_url": "https://api.github.com/users/willcl-ark/starred%7B/owner%7D%7B/repo%7D",
        "subscriptions_url": "https://api.github.com/users/willcl-ark/subscriptions",
        "organizations_url": "https://api.github.com/users/willcl-ark/orgs",
        "repos_url": "https://api.github.com/users/willcl-ark/repos",
        "events_url": "https://api.github.com/users/willcl-ark/events%7B/privacy%7D",
        "received_events_url": "https://api.github.com/users/willcl-ark/received_events",
        "type": "User",
        "site_admin": false,
        "name": null,
        "patch_url": null
      },
      "commit_id": null,
      "commit_url": null,
      "created_at": "2026-01-16T11:42:50Z",
      "label": {
        "name": "Wallet",
        "color": "08a781"
      }
    },
    {
      "event": "labeled",
      "id": 22093834720,
      "node_id": "LE_lADOABII584c5gYRzwAAAAUk5Sng",
      "url": "https://api.github.com/repos/bitcoin/bitcoin/issues/events/22093834720",
      "actor": {
        "login": "maflcko",
        "id": 6399679,
        "node_id": "MDQ6VXNlcjYzOTk2Nzk=",
        "avatar_url": "https://avatars.githubusercontent.com/u/6399679?v=4",
        "gravatar_id": "",
        "url": "https://api.github.com/users/maflcko",
        "html_url": "https://github.com/maflcko",
        "followers_url": "https://api.github.com/users/maflcko/followers",
        "following_url": "https://api.github.com/users/maflcko/following%7B/other_user%7D",
        "gists_url": "https://api.github.com/users/maflcko/gists%7B/gist_id%7D",
        "starred_url": "https://api.github.com/users/maflcko/starred%7B/owner%7D%7B/repo%7D",
        "subscriptions_url": "https://api.github.com/users/maflcko/subscriptions",
        "organizations_url": "https://api.github.com/users/maflcko/orgs",
        "repos_url": "https://api.github.com/users/maflcko/repos",
        "events_url": "https://api.github.com/users/maflcko/events%7B/privacy%7D",
        "received_events_url": "https://api.github.com/users/maflcko/received_events",
        "type": "User",
        "site_admin": false,
        "name": null,
        "patch_url": null
      },
      "commit_id": null,
      "commit_url": null,
      "created_at": "2026-01-16T11:45:07Z",
      "label": {
        "name": "RPC/REST/ZMQ",
        "color": "0052cc"
      }
    }
  ]
}