{
  "type": "issue",
  "issue": {
    "id": 1055642648,
    "node_id": "I_kwDOABII584-69QY",
    "url": "https://api.github.com/repos/bitcoin/bitcoin/issues/23533",
    "repository_url": "https://api.github.com/repos/bitcoin/bitcoin",
    "labels_url": "https://api.github.com/repos/bitcoin/bitcoin/issues/23533/labels%7B/name%7D",
    "comments_url": "https://api.github.com/repos/bitcoin/bitcoin/issues/23533/comments",
    "events_url": "https://api.github.com/repos/bitcoin/bitcoin/issues/23533/events",
    "html_url": "https://github.com/bitcoin/bitcoin/issues/23533",
    "number": 23533,
    "state": "closed",
    "state_reason": "completed",
    "title": "v22.0 fundrawtransaction Insufficient funds error ",
    "body": "\r\nWallet's balance was sufficient to pay a fee, and we used \"subractFeeFromOutputs\" as a \"fundrawtransaction\" option to transfer all of the money from the account.\r\nHowever, if the feeRate is set high, the amount to pay the fee is sufficient, but an \"Insufficient Funds\" error occurs.\r\n\r\n## v0.17.1\r\n\r\n./bitcoin-cli getbalance \r\n`0.02747781`\r\n\r\n./bitcoin-cli createrawtransaction [] \"[{\\\"1BoN7fHjtdufAL4ZjVnbW38SsAMbQwPK4R\\\":0.02747781}]\"\r\n`02000000000185ed2900000000001976a91476760491fdf2f1dc5428c79058c49e93fc432b8188ac00000000`\r\n\r\n\r\n**[high feeRate case]**\r\n./bitcoin-cli fundrawtransaction \"02000000000185ed2900000000001976a91476760491fdf2f1dc5428c79058c49e93fc432b8188ac00000000\" \"{\\\"subtractFeeFromOutputs\\\":[0], \\\"feeRate\\\":0.01016711}\"\r\n```\r\n{\r\n  \"hex\": \"020000001183fb588c5ceae790f627fd76278fefbe7ecb414ae3c83678746b5a7c32b9b5b70000000000fdffffff1dc5e5d10a325c739924ee0f990171eb1660ca24f6038dec6c69799721590ba90000000000fdffffffda529a6edd29c32b1f746ac39d1b28776543a6aed5c330007b0756743ee2f8420000000000fdfffffff3dd6ea5b7fc0540a179162cbd1b9c25e82d7d5c0ad6a7e086dcba4f4f9798760100000000fdffffff57afa33e56d3cdcc752cfae9e0b44b8e9608400d07e5ddd122669426b29ea9c80100000000fdffffffccee315e4800d7ac0696c8f8845d9985573882f1483d95572c3465226fd872d40000000000fdffffff4ed7188988b48dcd81723fed788cd72811173c88557dc0e807867b2c116cbf640000000000fdffffff342d28a62a5f005adcb1bbc8eae7640377c78b643e5cb2642235e58498047b200000000000fdffffff4ffdff99026432d641b7be05979661088f74ea5304649102c090cebb552e1e1e0000000000fdffffffc39083c8b187b4feec0c93a64d7e0b3377dbb4d436d5b869f42a8c863af685b50000000000fdffffff4ae03f15b3f1ccfe1d1672e94098bb56add36bbd7d6cfba187c7ec61af42aa830000000000fdfffffff9c4284c741c018136e588b921a3dc365c9a3d93f2b788f523dced9a3f3b53ff0100000000fdffffff90c43d6d07ce04c8676376cbabdd9293cc251320d3dfa065ffe22524f14207150100000000fdffffffae5ba3902ba27be221261ec4a19e88cebec6e7d37c7264170a0b4304b3f94fd50000000000fdffffffc579ad3661c6999eeff283f97d3b2bd119d449c18e46fa28fb4d344493d3ce280100000000fdffffff3db96066d514891dececeadf3cc9f75cec457aa78cc5dbd2f7f6c8254674df950000000000fdffffff69a8eeeefbc5912636d3c715c73581525db4de907556e1c132c1d4436030cf700100000000fdffffff01147c0300000000001976a91476760491fdf2f1dc5428c79058c49e93fc432b8188ac00000000\",\r\n  \"fee\": 0.02519409,\r\n  \"changepos\": -1\r\n}\r\n```\r\n\r\n./bicoin-cli decderawtransaction \"020000001183fb588c5ceae790f627fd76278fefbe7ecb414ae3c83678746b5a7c32b9b5b70000000000fdffffff1dc5e5d10a325c739924ee0f990171eb1660ca24f6038dec6c69799721590ba90000000000fdffffffda529a6edd29c32b1f746ac39d1b28776543a6aed5c330007b0756743ee2f8420000000000fdfffffff3dd6ea5b7fc0540a179162cbd1b9c25e82d7d5c0ad6a7e086dcba4f4f9798760100000000fdffffff57afa33e56d3cdcc752cfae9e0b44b8e9608400d07e5ddd122669426b29ea9c80100000000fdffffffccee315e4800d7ac0696c8f8845d9985573882f1483d95572c3465226fd872d40000000000fdffffff4ed7188988b48dcd81723fed788cd72811173c88557dc0e807867b2c116cbf640000000000fdffffff342d28a62a5f005adcb1bbc8eae7640377c78b643e5cb2642235e58498047b200000000000fdffffff4ffdff99026432d641b7be05979661088f74ea5304649102c090cebb552e1e1e0000000000fdffffffc39083c8b187b4feec0c93a64d7e0b3377dbb4d436d5b869f42a8c863af685b50000000000fdffffff4ae03f15b3f1ccfe1d1672e94098bb56add36bbd7d6cfba187c7ec61af42aa830000000000fdfffffff9c4284c741c018136e588b921a3dc365c9a3d93f2b788f523dced9a3f3b53ff0100000000fdffffff90c43d6d07ce04c8676376cbabdd9293cc251320d3dfa065ffe22524f14207150100000000fdffffffae5ba3902ba27be221261ec4a19e88cebec6e7d37c7264170a0b4304b3f94fd50000000000fdffffffc579ad3661c6999eeff283f97d3b2bd119d449c18e46fa28fb4d344493d3ce280100000000fdffffff3db96066d514891dececeadf3cc9f75cec457aa78cc5dbd2f7f6c8254674df950000000000fdffffff69a8eeeefbc5912636d3c715c73581525db4de907556e1c132c1d4436030cf700100000000fdffffff01147c0300000000001976a91476760491fdf2f1dc5428c79058c49e93fc432b8188ac00000000\"\r\n```\r\n{\r\n  \"txid\": \"2e6d8121885968861261a9473f889af0abfccd32f784178eb20dc62ec6bad8e4\",\r\n  \"hash\": \"2e6d8121885968861261a9473f889af0abfccd32f784178eb20dc62ec6bad8e4\",\r\n  \"version\": 2,\r\n  \"size\": 741,\r\n  \"vsize\": 741,\r\n  \"weight\": 2964,\r\n  \"locktime\": 0,\r\n  \"vin\": [\r\n    {\r\n      \"txid\": \"b7b5b9327c5a6b747836c8e34a41cb7ebeef8f2776fd27f690e7ea5c8c58fb83\",\r\n      \"vout\": 0,\r\n      \"scriptSig\": {\r\n        \"asm\": \"\",\r\n        \"hex\": \"\"\r\n      },\r\n      \"sequence\": 4294967293\r\n    },\r\n    {\r\n      \"txid\": \"a90b59219779696cec8d03f624ca6016eb7101990fee2499735c320ad1e5c51d\",\r\n      \"vout\": 0,\r\n      \"scriptSig\": {\r\n        \"asm\": \"\",\r\n        \"hex\": \"\"\r\n      },\r\n      \"sequence\": 4294967293\r\n    }\r\n\r\n....\r\n  ],\r\n  \"vout\": [\r\n    {\r\n      \"value\": 0.00228372,\r\n      \"n\": 0,\r\n      \"scriptPubKey\": {\r\n        \"asm\": \"OP_DUP OP_HASH160 76760491fdf2f1dc5428c79058c49e93fc432b81 OP_EQUALVERIFY OP_CHECKSIG\",\r\n        \"hex\": \"76a91476760491fdf2f1dc5428c79058c49e93fc432b8188ac\",\r\n        \"reqSigs\": 1,\r\n        \"type\": \"pubkeyhash\",\r\n        \"addresses\": [\r\n          \"1BoN7fHjtdufAL4ZjVnbW38SsAMbQwPK4R\"\r\n        ]\r\n      }\r\n    }\r\n  ]\r\n}\r\n```\r\n\r\n\r\n## v22.0\r\n\r\n./bitcoin-cli getbalance \r\n`0.02747781`\r\n\r\n./bitcoin-cli createrawtransaction [] \"[{\\\"1BoN7fHjtdufAL4ZjVnbW38SsAMbQwPK4R\\\":0.02747781}]\"\r\n`02000000000185ed2900000000001976a91476760491fdf2f1dc5428c79058c49e93fc432b8188ac00000000`\r\n\r\n\r\n\r\n**[Appropriate fee case]**\r\n./bitcoin-cli fundrawtransaction \"02000000000185ed2900000000001976a91476760491fdf2f1dc5428c79058c49e93fc432b8188ac00000000\" \"{\\\"subtractFeeFromOutputs\\\":[0], \\\"feeRate\\\":0.00006711}\"\r\n```\r\n{\r\n  \"hex\": \"020000001190c43d6d07ce04c8676376cbabdd9293cc251320d3dfa065ffe22524f14207150100000000fdffffff83fb588c5ceae790f627fd76278fefbe7ecb414ae3c83678746b5a7c32b9b5b70000000000fdffffff69a8eeeefbc5912636d3c715c73581525db4de907556e1c132c1d4436030cf700100000000fdffffff4ed7188988b48dcd81723fed788cd72811173c88557dc0e807867b2c116cbf640000000000fdffffff4ffdff99026432d641b7be05979661088f74ea5304649102c090cebb552e1e1e0000000000fdffffff3db96066d514891dececeadf3cc9f75cec457aa78cc5dbd2f7f6c8254674df950000000000fdffffff342d28a62a5f005adcb1bbc8eae7640377c78b643e5cb2642235e58498047b200000000000fdffffffda529a6edd29c32b1f746ac39d1b28776543a6aed5c330007b0756743ee2f8420000000000fdffffffae5ba3902ba27be221261ec4a19e88cebec6e7d37c7264170a0b4304b3f94fd50000000000fdffffff57afa33e56d3cdcc752cfae9e0b44b8e9608400d07e5ddd122669426b29ea9c80100000000fdffffff1dc5e5d10a325c739924ee0f990171eb1660ca24f6038dec6c69799721590ba90000000000fdfffffff3dd6ea5b7fc0540a179162cbd1b9c25e82d7d5c0ad6a7e086dcba4f4f9798760100000000fdffffffccee315e4800d7ac0696c8f8845d9985573882f1483d95572c3465226fd872d40000000000fdffffff4ae03f15b3f1ccfe1d1672e94098bb56add36bbd7d6cfba187c7ec61af42aa830000000000fdffffffc39083c8b187b4feec0c93a64d7e0b3377dbb4d436d5b869f42a8c863af685b50000000000fdfffffff9c4284c741c018136e588b921a3dc365c9a3d93f2b788f523dced9a3f3b53ff0100000000fdffffffc579ad3661c6999eeff283f97d3b2bd119d449c18e46fa28fb4d344493d3ce280100000000fdffffff0190ac2900000000001976a91476760491fdf2f1dc5428c79058c49e93fc432b8188ac00000000\",\r\n  \"fee\": 0.00016629,\r\n  \"changepos\": -1\r\n}\r\n```\r\n\r\n **[high fee case]** \r\n./bitcoin-cli fundrawtransaction \"02000000000185ed2900000000001976a91476760491fdf2f1dc5428c79058c49e93fc432b8188ac00000000\" \"\r\n{\\\"subtractFeeFromOutputs\\\":[0], \\\"feeRate\\\":0.00006712}\"\r\n```\r\nerror code: -4\r\nerror message:\r\nInsufficient funds\r\n```\r\n\r\n##.\r\n**In the above case, v22.0 shows a normal response if the feeRate is 0.00006711 or less, and an error if it is 0.00006712 or higher. Can I know why?**\r\n\r\n\r\n\r\n",
    "user": {
      "login": "DevMinJong",
      "id": 48992754,
      "node_id": "MDQ6VXNlcjQ4OTkyNzU0",
      "avatar_url": "https://avatars.githubusercontent.com/u/48992754?v=4",
      "gravatar_id": "",
      "url": "https://api.github.com/users/DevMinJong",
      "html_url": "https://github.com/DevMinJong",
      "followers_url": "https://api.github.com/users/DevMinJong/followers",
      "following_url": "https://api.github.com/users/DevMinJong/following%7B/other_user%7D",
      "gists_url": "https://api.github.com/users/DevMinJong/gists%7B/gist_id%7D",
      "starred_url": "https://api.github.com/users/DevMinJong/starred%7B/owner%7D%7B/repo%7D",
      "subscriptions_url": "https://api.github.com/users/DevMinJong/subscriptions",
      "organizations_url": "https://api.github.com/users/DevMinJong/orgs",
      "repos_url": "https://api.github.com/users/DevMinJong/repos",
      "events_url": "https://api.github.com/users/DevMinJong/events%7B/privacy%7D",
      "received_events_url": "https://api.github.com/users/DevMinJong/received_events",
      "type": "User",
      "site_admin": false
    },
    "labels": [
      {
        "id": 64585,
        "node_id": "MDU6TGFiZWw2NDU4NQ==",
        "url": "https://api.github.com/repos/bitcoin/bitcoin/labels/Bug",
        "name": "Bug",
        "color": "FBBAAB",
        "default": false
      }
    ],
    "assignees": [],
    "author_association": "NONE",
    "locked": true,
    "comments": 1,
    "closed_at": "2021-11-17T11:32:08Z",
    "created_at": "2021-11-17T02:46:23Z",
    "updated_at": "2022-11-17T09:56:01Z"
  },
  "events": [
    {
      "event": "labeled",
      "id": 5628968445,
      "node_id": "LE_lADOABII584-69QYzwAAAAFPgz39",
      "url": "https://api.github.com/repos/bitcoin/bitcoin/issues/events/5628968445",
      "actor": {
        "login": "DevMinJong",
        "id": 48992754,
        "node_id": "MDQ6VXNlcjQ4OTkyNzU0",
        "avatar_url": "https://avatars.githubusercontent.com/u/48992754?v=4",
        "gravatar_id": "",
        "url": "https://api.github.com/users/DevMinJong",
        "html_url": "https://github.com/DevMinJong",
        "followers_url": "https://api.github.com/users/DevMinJong/followers",
        "following_url": "https://api.github.com/users/DevMinJong/following%7B/other_user%7D",
        "gists_url": "https://api.github.com/users/DevMinJong/gists%7B/gist_id%7D",
        "starred_url": "https://api.github.com/users/DevMinJong/starred%7B/owner%7D%7B/repo%7D",
        "subscriptions_url": "https://api.github.com/users/DevMinJong/subscriptions",
        "organizations_url": "https://api.github.com/users/DevMinJong/orgs",
        "repos_url": "https://api.github.com/users/DevMinJong/repos",
        "events_url": "https://api.github.com/users/DevMinJong/events%7B/privacy%7D",
        "received_events_url": "https://api.github.com/users/DevMinJong/received_events",
        "type": "User",
        "site_admin": false
      },
      "commit_id": null,
      "commit_url": null,
      "created_at": "2021-11-17T02:46:23Z",
      "label": {
        "name": "Bug",
        "color": "FBBAAB"
      }
    },
    {
      "event": "mentioned",
      "id": 5628970224,
      "node_id": "MEE_lADOABII584-69QYzwAAAAFPg0Tw",
      "url": "https://api.github.com/repos/bitcoin/bitcoin/issues/events/5628970224",
      "actor": {
        "login": "MarcoFalke",
        "id": 6399679,
        "node_id": "MDQ6VXNlcjYzOTk2Nzk=",
        "avatar_url": "https://avatars.githubusercontent.com/u/6399679?v=4",
        "gravatar_id": "",
        "url": "https://api.github.com/users/MarcoFalke",
        "html_url": "https://github.com/MarcoFalke",
        "followers_url": "https://api.github.com/users/MarcoFalke/followers",
        "following_url": "https://api.github.com/users/MarcoFalke/following%7B/other_user%7D",
        "gists_url": "https://api.github.com/users/MarcoFalke/gists%7B/gist_id%7D",
        "starred_url": "https://api.github.com/users/MarcoFalke/starred%7B/owner%7D%7B/repo%7D",
        "subscriptions_url": "https://api.github.com/users/MarcoFalke/subscriptions",
        "organizations_url": "https://api.github.com/users/MarcoFalke/orgs",
        "repos_url": "https://api.github.com/users/MarcoFalke/repos",
        "events_url": "https://api.github.com/users/MarcoFalke/events%7B/privacy%7D",
        "received_events_url": "https://api.github.com/users/MarcoFalke/received_events",
        "type": "User",
        "site_admin": false
      },
      "commit_id": null,
      "commit_url": null,
      "created_at": "2021-11-17T02:47:04Z"
    },
    {
      "event": "subscribed",
      "id": 5628970228,
      "node_id": "SE_lADOABII584-69QYzwAAAAFPg0T0",
      "url": "https://api.github.com/repos/bitcoin/bitcoin/issues/events/5628970228",
      "actor": {
        "login": "MarcoFalke",
        "id": 6399679,
        "node_id": "MDQ6VXNlcjYzOTk2Nzk=",
        "avatar_url": "https://avatars.githubusercontent.com/u/6399679?v=4",
        "gravatar_id": "",
        "url": "https://api.github.com/users/MarcoFalke",
        "html_url": "https://github.com/MarcoFalke",
        "followers_url": "https://api.github.com/users/MarcoFalke/followers",
        "following_url": "https://api.github.com/users/MarcoFalke/following%7B/other_user%7D",
        "gists_url": "https://api.github.com/users/MarcoFalke/gists%7B/gist_id%7D",
        "starred_url": "https://api.github.com/users/MarcoFalke/starred%7B/owner%7D%7B/repo%7D",
        "subscriptions_url": "https://api.github.com/users/MarcoFalke/subscriptions",
        "organizations_url": "https://api.github.com/users/MarcoFalke/orgs",
        "repos_url": "https://api.github.com/users/MarcoFalke/repos",
        "events_url": "https://api.github.com/users/MarcoFalke/events%7B/privacy%7D",
        "received_events_url": "https://api.github.com/users/MarcoFalke/received_events",
        "type": "User",
        "site_admin": false
      },
      "commit_id": null,
      "commit_url": null,
      "created_at": "2021-11-17T02:47:04Z"
    },
    {
      "event": "mentioned",
      "id": 5628970230,
      "node_id": "MEE_lADOABII584-69QYzwAAAAFPg0T2",
      "url": "https://api.github.com/repos/bitcoin/bitcoin/issues/events/5628970230",
      "actor": {
        "login": "yurayakimenko",
        "id": 33694096,
        "node_id": "MDQ6VXNlcjMzNjk0MDk2",
        "avatar_url": "https://avatars.githubusercontent.com/u/33694096?v=4",
        "gravatar_id": "",
        "url": "https://api.github.com/users/yurayakimenko",
        "html_url": "https://github.com/yurayakimenko",
        "followers_url": "https://api.github.com/users/yurayakimenko/followers",
        "following_url": "https://api.github.com/users/yurayakimenko/following%7B/other_user%7D",
        "gists_url": "https://api.github.com/users/yurayakimenko/gists%7B/gist_id%7D",
        "starred_url": "https://api.github.com/users/yurayakimenko/starred%7B/owner%7D%7B/repo%7D",
        "subscriptions_url": "https://api.github.com/users/yurayakimenko/subscriptions",
        "organizations_url": "https://api.github.com/users/yurayakimenko/orgs",
        "repos_url": "https://api.github.com/users/yurayakimenko/repos",
        "events_url": "https://api.github.com/users/yurayakimenko/events%7B/privacy%7D",
        "received_events_url": "https://api.github.com/users/yurayakimenko/received_events",
        "type": "User",
        "site_admin": false
      },
      "commit_id": null,
      "commit_url": null,
      "created_at": "2021-11-17T02:47:04Z"
    },
    {
      "event": "subscribed",
      "id": 5628970232,
      "node_id": "SE_lADOABII584-69QYzwAAAAFPg0T4",
      "url": "https://api.github.com/repos/bitcoin/bitcoin/issues/events/5628970232",
      "actor": {
        "login": "yurayakimenko",
        "id": 33694096,
        "node_id": "MDQ6VXNlcjMzNjk0MDk2",
        "avatar_url": "https://avatars.githubusercontent.com/u/33694096?v=4",
        "gravatar_id": "",
        "url": "https://api.github.com/users/yurayakimenko",
        "html_url": "https://github.com/yurayakimenko",
        "followers_url": "https://api.github.com/users/yurayakimenko/followers",
        "following_url": "https://api.github.com/users/yurayakimenko/following%7B/other_user%7D",
        "gists_url": "https://api.github.com/users/yurayakimenko/gists%7B/gist_id%7D",
        "starred_url": "https://api.github.com/users/yurayakimenko/starred%7B/owner%7D%7B/repo%7D",
        "subscriptions_url": "https://api.github.com/users/yurayakimenko/subscriptions",
        "organizations_url": "https://api.github.com/users/yurayakimenko/orgs",
        "repos_url": "https://api.github.com/users/yurayakimenko/repos",
        "events_url": "https://api.github.com/users/yurayakimenko/events%7B/privacy%7D",
        "received_events_url": "https://api.github.com/users/yurayakimenko/received_events",
        "type": "User",
        "site_admin": false
      },
      "commit_id": null,
      "commit_url": null,
      "created_at": "2021-11-17T02:47:04Z"
    },
    {
      "event": "unsubscribed",
      "id": 5628971549,
      "node_id": "UE_lADOABII584-69QYzwAAAAFPg0od",
      "url": "https://api.github.com/repos/bitcoin/bitcoin/issues/events/5628971549",
      "actor": {
        "login": "MarcoFalke",
        "id": 6399679,
        "node_id": "MDQ6VXNlcjYzOTk2Nzk=",
        "avatar_url": "https://avatars.githubusercontent.com/u/6399679?v=4",
        "gravatar_id": "",
        "url": "https://api.github.com/users/MarcoFalke",
        "html_url": "https://github.com/MarcoFalke",
        "followers_url": "https://api.github.com/users/MarcoFalke/followers",
        "following_url": "https://api.github.com/users/MarcoFalke/following%7B/other_user%7D",
        "gists_url": "https://api.github.com/users/MarcoFalke/gists%7B/gist_id%7D",
        "starred_url": "https://api.github.com/users/MarcoFalke/starred%7B/owner%7D%7B/repo%7D",
        "subscriptions_url": "https://api.github.com/users/MarcoFalke/subscriptions",
        "organizations_url": "https://api.github.com/users/MarcoFalke/orgs",
        "repos_url": "https://api.github.com/users/MarcoFalke/repos",
        "events_url": "https://api.github.com/users/MarcoFalke/events%7B/privacy%7D",
        "received_events_url": "https://api.github.com/users/MarcoFalke/received_events",
        "type": "User",
        "site_admin": false
      },
      "commit_id": null,
      "commit_url": null,
      "created_at": "2021-11-17T02:47:32Z"
    },
    {
      "event": "unsubscribed",
      "id": 5628971552,
      "node_id": "UE_lADOABII584-69QYzwAAAAFPg0og",
      "url": "https://api.github.com/repos/bitcoin/bitcoin/issues/events/5628971552",
      "actor": {
        "login": "yurayakimenko",
        "id": 33694096,
        "node_id": "MDQ6VXNlcjMzNjk0MDk2",
        "avatar_url": "https://avatars.githubusercontent.com/u/33694096?v=4",
        "gravatar_id": "",
        "url": "https://api.github.com/users/yurayakimenko",
        "html_url": "https://github.com/yurayakimenko",
        "followers_url": "https://api.github.com/users/yurayakimenko/followers",
        "following_url": "https://api.github.com/users/yurayakimenko/following%7B/other_user%7D",
        "gists_url": "https://api.github.com/users/yurayakimenko/gists%7B/gist_id%7D",
        "starred_url": "https://api.github.com/users/yurayakimenko/starred%7B/owner%7D%7B/repo%7D",
        "subscriptions_url": "https://api.github.com/users/yurayakimenko/subscriptions",
        "organizations_url": "https://api.github.com/users/yurayakimenko/orgs",
        "repos_url": "https://api.github.com/users/yurayakimenko/repos",
        "events_url": "https://api.github.com/users/yurayakimenko/events%7B/privacy%7D",
        "received_events_url": "https://api.github.com/users/yurayakimenko/received_events",
        "type": "User",
        "site_admin": false
      },
      "commit_id": null,
      "commit_url": null,
      "created_at": "2021-11-17T02:47:32Z"
    },
    {
      "event": "renamed",
      "id": 5628972199,
      "node_id": "RTE_lADOABII584-69QYzwAAAAFPg0yn",
      "url": "https://api.github.com/repos/bitcoin/bitcoin/issues/events/5628972199",
      "actor": {
        "login": "DevMinJong",
        "id": 48992754,
        "node_id": "MDQ6VXNlcjQ4OTkyNzU0",
        "avatar_url": "https://avatars.githubusercontent.com/u/48992754?v=4",
        "gravatar_id": "",
        "url": "https://api.github.com/users/DevMinJong",
        "html_url": "https://github.com/DevMinJong",
        "followers_url": "https://api.github.com/users/DevMinJong/followers",
        "following_url": "https://api.github.com/users/DevMinJong/following%7B/other_user%7D",
        "gists_url": "https://api.github.com/users/DevMinJong/gists%7B/gist_id%7D",
        "starred_url": "https://api.github.com/users/DevMinJong/starred%7B/owner%7D%7B/repo%7D",
        "subscriptions_url": "https://api.github.com/users/DevMinJong/subscriptions",
        "organizations_url": "https://api.github.com/users/DevMinJong/orgs",
        "repos_url": "https://api.github.com/users/DevMinJong/repos",
        "events_url": "https://api.github.com/users/DevMinJong/events%7B/privacy%7D",
        "received_events_url": "https://api.github.com/users/DevMinJong/received_events",
        "type": "User",
        "site_admin": false
      },
      "commit_id": null,
      "commit_url": null,
      "created_at": "2021-11-17T02:47:45Z",
      "rename": {
        "from": "fundrawtransaction Insufficient funds error ",
        "to": "v22.0 fundrawtransaction Insufficient funds error "
      }
    },
    {
      "event": "commented",
      "id": 971489234,
      "node_id": "IC_kwDOABII584557_S",
      "url": "https://api.github.com/repos/bitcoin/bitcoin/issues/comments/971489234",
      "actor": {
        "login": "MarcoFalke",
        "id": 6399679,
        "node_id": "MDQ6VXNlcjYzOTk2Nzk=",
        "avatar_url": "https://avatars.githubusercontent.com/u/6399679?v=4",
        "gravatar_id": "",
        "url": "https://api.github.com/users/MarcoFalke",
        "html_url": "https://github.com/MarcoFalke",
        "followers_url": "https://api.github.com/users/MarcoFalke/followers",
        "following_url": "https://api.github.com/users/MarcoFalke/following%7B/other_user%7D",
        "gists_url": "https://api.github.com/users/MarcoFalke/gists%7B/gist_id%7D",
        "starred_url": "https://api.github.com/users/MarcoFalke/starred%7B/owner%7D%7B/repo%7D",
        "subscriptions_url": "https://api.github.com/users/MarcoFalke/subscriptions",
        "organizations_url": "https://api.github.com/users/MarcoFalke/orgs",
        "repos_url": "https://api.github.com/users/MarcoFalke/repos",
        "events_url": "https://api.github.com/users/MarcoFalke/events%7B/privacy%7D",
        "received_events_url": "https://api.github.com/users/MarcoFalke/received_events",
        "type": "User",
        "site_admin": false
      },
      "commit_id": null,
      "commit_url": null,
      "created_at": "2021-11-17T11:32:08Z",
      "updated_at": "2021-11-17T11:32:08Z",
      "author_association": "MEMBER",
      "body": "How is this different from https://github.com/bitcoin/bitcoin/issues/23026#issuecomment-971123270 ?",
      "user": {
        "login": "MarcoFalke",
        "id": 6399679,
        "node_id": "MDQ6VXNlcjYzOTk2Nzk=",
        "avatar_url": "https://avatars.githubusercontent.com/u/6399679?v=4",
        "gravatar_id": "",
        "url": "https://api.github.com/users/MarcoFalke",
        "html_url": "https://github.com/MarcoFalke",
        "followers_url": "https://api.github.com/users/MarcoFalke/followers",
        "following_url": "https://api.github.com/users/MarcoFalke/following%7B/other_user%7D",
        "gists_url": "https://api.github.com/users/MarcoFalke/gists%7B/gist_id%7D",
        "starred_url": "https://api.github.com/users/MarcoFalke/starred%7B/owner%7D%7B/repo%7D",
        "subscriptions_url": "https://api.github.com/users/MarcoFalke/subscriptions",
        "organizations_url": "https://api.github.com/users/MarcoFalke/orgs",
        "repos_url": "https://api.github.com/users/MarcoFalke/repos",
        "events_url": "https://api.github.com/users/MarcoFalke/events%7B/privacy%7D",
        "received_events_url": "https://api.github.com/users/MarcoFalke/received_events",
        "type": "User",
        "site_admin": false
      },
      "html_url": "https://github.com/bitcoin/bitcoin/issues/23533#issuecomment-971489234",
      "issue_url": "https://api.github.com/repos/bitcoin/bitcoin/issues/23533"
    },
    {
      "event": "closed",
      "id": 5631223351,
      "node_id": "CE_lADOABII584-69QYzwAAAAFPpaY3",
      "url": "https://api.github.com/repos/bitcoin/bitcoin/issues/events/5631223351",
      "actor": {
        "login": "MarcoFalke",
        "id": 6399679,
        "node_id": "MDQ6VXNlcjYzOTk2Nzk=",
        "avatar_url": "https://avatars.githubusercontent.com/u/6399679?v=4",
        "gravatar_id": "",
        "url": "https://api.github.com/users/MarcoFalke",
        "html_url": "https://github.com/MarcoFalke",
        "followers_url": "https://api.github.com/users/MarcoFalke/followers",
        "following_url": "https://api.github.com/users/MarcoFalke/following%7B/other_user%7D",
        "gists_url": "https://api.github.com/users/MarcoFalke/gists%7B/gist_id%7D",
        "starred_url": "https://api.github.com/users/MarcoFalke/starred%7B/owner%7D%7B/repo%7D",
        "subscriptions_url": "https://api.github.com/users/MarcoFalke/subscriptions",
        "organizations_url": "https://api.github.com/users/MarcoFalke/orgs",
        "repos_url": "https://api.github.com/users/MarcoFalke/repos",
        "events_url": "https://api.github.com/users/MarcoFalke/events%7B/privacy%7D",
        "received_events_url": "https://api.github.com/users/MarcoFalke/received_events",
        "type": "User",
        "site_admin": false
      },
      "commit_id": null,
      "commit_url": null,
      "created_at": "2021-11-17T11:32:08Z"
    },
    {
      "event": "locked",
      "id": 7832143284,
      "node_id": "LOE_lADOABII584-69QYzwAAAAHS1QW0",
      "url": "https://api.github.com/repos/bitcoin/bitcoin/issues/events/7832143284",
      "actor": {
        "login": "DrahtBot",
        "id": 39886733,
        "node_id": "MDQ6VXNlcjM5ODg2NzMz",
        "avatar_url": "https://avatars.githubusercontent.com/u/39886733?v=4",
        "gravatar_id": "",
        "url": "https://api.github.com/users/DrahtBot",
        "html_url": "https://github.com/DrahtBot",
        "followers_url": "https://api.github.com/users/DrahtBot/followers",
        "following_url": "https://api.github.com/users/DrahtBot/following%7B/other_user%7D",
        "gists_url": "https://api.github.com/users/DrahtBot/gists%7B/gist_id%7D",
        "starred_url": "https://api.github.com/users/DrahtBot/starred%7B/owner%7D%7B/repo%7D",
        "subscriptions_url": "https://api.github.com/users/DrahtBot/subscriptions",
        "organizations_url": "https://api.github.com/users/DrahtBot/orgs",
        "repos_url": "https://api.github.com/users/DrahtBot/repos",
        "events_url": "https://api.github.com/users/DrahtBot/events%7B/privacy%7D",
        "received_events_url": "https://api.github.com/users/DrahtBot/received_events",
        "type": "User",
        "site_admin": false
      },
      "commit_id": null,
      "commit_url": null,
      "created_at": "2022-11-17T09:56:01Z"
    }
  ]
}