{
  "type": "issue",
  "issue": {
    "id": 1184546756,
    "node_id": "I_kwDOABII585Gmr_E",
    "url": "https://api.github.com/repos/bitcoin/bitcoin/issues/24702",
    "repository_url": "https://api.github.com/repos/bitcoin/bitcoin",
    "labels_url": "https://api.github.com/repos/bitcoin/bitcoin/issues/24702/labels%7B/name%7D",
    "comments_url": "https://api.github.com/repos/bitcoin/bitcoin/issues/24702/comments",
    "events_url": "https://api.github.com/repos/bitcoin/bitcoin/issues/24702/events",
    "html_url": "https://github.com/bitcoin/bitcoin/issues/24702",
    "number": 24702,
    "state": "closed",
    "state_reason": "completed",
    "title": "Addresses not decoded for multisig vout in 22.x+",
    "body": "Hello,\r\nanyone can suggest why addresses won't decode in newer versions?\r\n\r\nexample:\r\nbitcoin-core 0.21\r\n```\r\nbitcoin-cli getrawtransaction 9297132b89461da9dee0364db49eeb1c32770550bc5b82e02f1cbaab01043aa3 1\r\n{\r\n  \"txid\": \"9297132b89461da9dee0364db49eeb1c32770550bc5b82e02f1cbaab01043aa3\",\r\n  \"hash\": \"9297132b89461da9dee0364db49eeb1c32770550bc5b82e02f1cbaab01043aa3\",\r\n  \"version\": 1,\r\n  \"size\": 404,\r\n  \"vsize\": 404,\r\n  \"weight\": 1616,\r\n  \"locktime\": 0,\r\n  \"vin\": [\r\n    {\r\n      \"txid\": \"e5e4e758102d9d677e26fa1029a69e1a6dd1e4c60a89990c3c47c207b455fdde\",\r\n      \"vout\": 0,\r\n      \"scriptSig\": {\r\n        \"asm\": \"3045022023ec9d65d61343eafba6498ed668d14a4f30507196eeda42789f9e1e5de471e80221008898d2243728f64e545b3fc13afaf9f3f54a7f1c8f9760708a4a8c7043901fbe[ALL] 04a2d908b30291114a6cc781cb7caca48393bae2faef19189b3262ae9e957204272ff30528a289146141e350869d8b7386acfd6cf20e01e4ad38ab87bf542e2aa0\",\r\n        \"hex\": \"483045022023ec9d65d61343eafba6498ed668d14a4f30507196eeda42789f9e1e5de471e80221008898d2243728f64e545b3fc13afaf9f3f54a7f1c8f9760708a4a8c7043901fbe014104a2d908b30291114a6cc781cb7caca48393bae2faef19189b3262ae9e957204272ff30528a289146141e350869d8b7386acfd6cf20e01e4ad38ab87bf542e2aa0\"\r\n      },\r\n      \"sequence\": 4294967295\r\n    }\r\n  ],\r\n  \"vout\": [\r\n    {\r\n      \"value\": 9.70342805,\r\n      \"n\": 0,\r\n      \"scriptPubKey\": {\r\n        \"asm\": \"OP_DUP OP_HASH160 dcfdb039e694e96dc9f49098abf5abe838ea4a2f OP_EQUALVERIFY OP_CHECKSIG\",\r\n        \"hex\": \"76a914dcfdb039e694e96dc9f49098abf5abe838ea4a2f88ac\",\r\n        \"reqSigs\": 1,\r\n        \"type\": \"pubkeyhash\",\r\n        \"addresses\": [\r\n          \"1M9VZnGuuXBw4YUsgzMPwCNGgBBnsoEGLW\"\r\n        ]\r\n      }\r\n    },\r\n    {\r\n      \"value\": 0.00005757,\r\n      \"n\": 1,\r\n      \"scriptPubKey\": {\r\n        \"asm\": \"OP_DUP OP_HASH160 946cb2e08075bcbaf157e47bcb67eb2b2339d242 OP_EQUALVERIFY OP_CHECKSIG\",\r\n        \"hex\": \"76a914946cb2e08075bcbaf157e47bcb67eb2b2339d24288ac\",\r\n        \"reqSigs\": 1,\r\n        \"type\": \"pubkeyhash\",\r\n        \"addresses\": [\r\n          \"1EXoDusjGwvnjZUyKkxZ4UHEf77z6A5S4P\"\r\n        ]\r\n      }\r\n    },\r\n    {\r\n      \"value\": 0.00005757,\r\n      \"n\": 2,\r\n      \"scriptPubKey\": {\r\n        \"asm\": \"OP_DUP OP_HASH160 966acb4de317bc06c44106c3301229aba2b4ed69 OP_EQUALVERIFY OP_CHECKSIG\",\r\n        \"hex\": \"76a914966acb4de317bc06c44106c3301229aba2b4ed6988ac\",\r\n        \"reqSigs\": 1,\r\n        \"type\": \"pubkeyhash\",\r\n        \"addresses\": [\r\n          \"1EiLHxqVWZ8qPFcRJ4WpZk1HPbmy2PTMs8\"\r\n        ]\r\n      }\r\n    },\r\n    {\r\n      \"value\": 0.00011514,\r\n      \"n\": 3,\r\n      \"scriptPubKey\": {\r\n        \"asm\": \"1 04a2d908b30291114a6cc781cb7caca48393bae2faef19189b3262ae9e957204272ff30528a289146141e350869d8b7386acfd6cf20e01e4ad38ab87bf542e2aa0 021e7be74a6b018374c253d8a7c8530952fd8bed2169a56d6591c483c3b9916b02 2 OP_CHECKMULTISIG\",\r\n        \"hex\": \"514104a2d908b30291114a6cc781cb7caca48393bae2faef19189b3262ae9e957204272ff30528a289146141e350869d8b7386acfd6cf20e01e4ad38ab87bf542e2aa021021e7be74a6b018374c253d8a7c8530952fd8bed2169a56d6591c483c3b9916b0252ae\",\r\n        \"reqSigs\": 1,\r\n        \"type\": \"multisig\",\r\n        \"addresses\": [\r\n          \"1M9VZnGuuXBw4YUsgzMPwCNGgBBnsoEGLW\",\r\n          \"1vAryhyeqrBkYBLcqGEUwPrRC4U4MfbNc\"\r\n        ]\r\n      }\r\n    }\r\n  ],\r\n  \"hex\": \"0100000001defd55b407c2473c0c99890ac6e4d16d1a9ea62910fa267e679d2d1058e7e4e5000000008b483045022023ec9d65d61343eafba6498ed668d14a4f30507196eeda42789f9e1e5de471e80221008898d2243728f64e545b3fc13afaf9f3f54a7f1c8f9760708a4a8c7043901fbe014104a2d908b30291114a6cc781cb7caca48393bae2faef19189b3262ae9e957204272ff30528a289146141e350869d8b7386acfd6cf20e01e4ad38ab87bf542e2aa0ffffffff049541d639000000001976a914dcfdb039e694e96dc9f49098abf5abe838ea4a2f88ac7d160000000000001976a914946cb2e08075bcbaf157e47bcb67eb2b2339d24288ac7d160000000000001976a914966acb4de317bc06c44106c3301229aba2b4ed6988acfa2c00000000000067514104a2d908b30291114a6cc781cb7caca48393bae2faef19189b3262ae9e957204272ff30528a289146141e350869d8b7386acfd6cf20e01e4ad38ab87bf542e2aa021021e7be74a6b018374c253d8a7c8530952fd8bed2169a56d6591c483c3b9916b0252ae00000000\",\r\n  \"blockhash\": \"000000000000000007bd140bd5f9ec7d6195330b125c84ad24adb7f021012502\",\r\n  \"confirmations\": 410973,\r\n  \"time\": 1409535793,\r\n  \"blocktime\": 1409535793\r\n}\r\n```\r\n\r\nbitcoin-core 22.x+\r\n```\r\n{\r\n  \"txid\": \"9297132b89461da9dee0364db49eeb1c32770550bc5b82e02f1cbaab01043aa3\",\r\n  \"hash\": \"9297132b89461da9dee0364db49eeb1c32770550bc5b82e02f1cbaab01043aa3\",\r\n  \"version\": 1,\r\n  \"size\": 404,\r\n  \"vsize\": 404,\r\n  \"weight\": 1616,\r\n  \"locktime\": 0,\r\n  \"vin\": [\r\n    {\r\n      \"txid\": \"e5e4e758102d9d677e26fa1029a69e1a6dd1e4c60a89990c3c47c207b455fdde\",\r\n      \"vout\": 0,\r\n      \"scriptSig\": {\r\n        \"asm\": \"3045022023ec9d65d61343eafba6498ed668d14a4f30507196eeda42789f9e1e5de471e80221008898d2243728f64e545b3fc13afaf9f3f54a7f1c8f9760708a4a8c7043901fbe[ALL] 04a2d908b30291114a6cc781cb7caca48393bae2faef19189b3262ae9e957204272ff30528a289146141e350869d8b7386acfd6cf20e01e4ad38ab87bf542e2aa0\",\r\n        \"hex\": \"483045022023ec9d65d61343eafba6498ed668d14a4f30507196eeda42789f9e1e5de471e80221008898d2243728f64e545b3fc13afaf9f3f54a7f1c8f9760708a4a8c7043901fbe014104a2d908b30291114a6cc781cb7caca48393bae2faef19189b3262ae9e957204272ff30528a289146141e350869d8b7386acfd6cf20e01e4ad38ab87bf542e2aa0\"\r\n      },\r\n      \"sequence\": 4294967295\r\n    }\r\n  ],\r\n  \"vout\": [\r\n    {\r\n      \"value\": 9.70342805,\r\n      \"n\": 0,\r\n      \"scriptPubKey\": {\r\n        \"asm\": \"OP_DUP OP_HASH160 dcfdb039e694e96dc9f49098abf5abe838ea4a2f OP_EQUALVERIFY OP_CHECKSIG\",\r\n        \"desc\": \"addr(1M9VZnGuuXBw4YUsgzMPwCNGgBBnsoEGLW)#e82gnjrl\",\r\n        \"hex\": \"76a914dcfdb039e694e96dc9f49098abf5abe838ea4a2f88ac\",\r\n        \"address\": \"1M9VZnGuuXBw4YUsgzMPwCNGgBBnsoEGLW\",\r\n        \"type\": \"pubkeyhash\"\r\n      }\r\n    },\r\n    {\r\n      \"value\": 0.00005757,\r\n      \"n\": 1,\r\n      \"scriptPubKey\": {\r\n        \"asm\": \"OP_DUP OP_HASH160 946cb2e08075bcbaf157e47bcb67eb2b2339d242 OP_EQUALVERIFY OP_CHECKSIG\",\r\n        \"desc\": \"addr(1EXoDusjGwvnjZUyKkxZ4UHEf77z6A5S4P)#03u9lduk\",\r\n        \"hex\": \"76a914946cb2e08075bcbaf157e47bcb67eb2b2339d24288ac\",\r\n        \"address\": \"1EXoDusjGwvnjZUyKkxZ4UHEf77z6A5S4P\",\r\n        \"type\": \"pubkeyhash\"\r\n      }\r\n    },\r\n    {\r\n      \"value\": 0.00005757,\r\n      \"n\": 2,\r\n      \"scriptPubKey\": {\r\n        \"asm\": \"OP_DUP OP_HASH160 966acb4de317bc06c44106c3301229aba2b4ed69 OP_EQUALVERIFY OP_CHECKSIG\",\r\n        \"desc\": \"addr(1EiLHxqVWZ8qPFcRJ4WpZk1HPbmy2PTMs8)#c68jlngz\",\r\n        \"hex\": \"76a914966acb4de317bc06c44106c3301229aba2b4ed6988ac\",\r\n        \"address\": \"1EiLHxqVWZ8qPFcRJ4WpZk1HPbmy2PTMs8\",\r\n        \"type\": \"pubkeyhash\"\r\n      }\r\n    },\r\n    {\r\n      \"value\": 0.00011514,\r\n      \"n\": 3,\r\n      \"scriptPubKey\": {\r\n        \"asm\": \"1 04a2d908b30291114a6cc781cb7caca48393bae2faef19189b3262ae9e957204272ff30528a289146141e350869d8b7386acfd6cf20e01e4ad38ab87bf542e2aa0 021e7be74a6b018374c253d8a7c8530952fd8bed2169a56d6591c483c3b9916b02 2 OP_CHECKMULTISIG\",\r\n        \"desc\": \"multi(1,04a2d908b30291114a6cc781cb7caca48393bae2faef19189b3262ae9e957204272ff30528a289146141e350869d8b7386acfd6cf20e01e4ad38ab87bf542e2aa0,021e7be74a6b018374c253d8a7c8530952fd8bed2169a56d6591c483c3b9916b02)#vp945myn\",\r\n        \"hex\": \"514104a2d908b30291114a6cc781cb7caca48393bae2faef19189b3262ae9e957204272ff30528a289146141e350869d8b7386acfd6cf20e01e4ad38ab87bf542e2aa021021e7be74a6b018374c253d8a7c8530952fd8bed2169a56d6591c483c3b9916b0252ae\",\r\n        \"type\": \"multisig\"\r\n      }\r\n    }\r\n  ],\r\n  \"hex\": \"0100000001defd55b407c2473c0c99890ac6e4d16d1a9ea62910fa267e679d2d1058e7e4e5000000008b483045022023ec9d65d61343eafba6498ed668d14a4f30507196eeda42789f9e1e5de471e80221008898d2243728f64e545b3fc13afaf9f3f54a7f1c8f9760708a4a8c7043901fbe014104a2d908b30291114a6cc781cb7caca48393bae2faef19189b3262ae9e957204272ff30528a289146141e350869d8b7386acfd6cf20e01e4ad38ab87bf542e2aa0ffffffff049541d639000000001976a914dcfdb039e694e96dc9f49098abf5abe838ea4a2f88ac7d160000000000001976a914946cb2e08075bcbaf157e47bcb67eb2b2339d24288ac7d160000000000001976a914966acb4de317bc06c44106c3301229aba2b4ed6988acfa2c00000000000067514104a2d908b30291114a6cc781cb7caca48393bae2faef19189b3262ae9e957204272ff30528a289146141e350869d8b7386acfd6cf20e01e4ad38ab87bf542e2aa021021e7be74a6b018374c253d8a7c8530952fd8bed2169a56d6591c483c3b9916b0252ae00000000\",\r\n  \"blockhash\": \"000000000000000007bd140bd5f9ec7d6195330b125c84ad24adb7f021012502\",\r\n  \"confirmations\": 410994,\r\n  \"time\": 1409535793,\r\n  \"blocktime\": 1409535793\r\n}\r\n```\r\n\r\nas we can see there is no \"addresses\": [\"1M9VZnGuuXBw4YUsgzMPwCNGgBBnsoEGLW\", \"1vAryhyeqrBkYBLcqGEUwPrRC4U4MfbNc\"] in **vout: 3**\r\n\r\nWhy script not decoding?\r\nPerhaps anyone knows in which commit it was changed?",
    "user": {
      "login": "academe-01",
      "id": 95714796,
      "node_id": "U_kgDOBbR97A",
      "avatar_url": "https://avatars.githubusercontent.com/u/95714796?v=4",
      "gravatar_id": "",
      "url": "https://api.github.com/users/academe-01",
      "html_url": "https://github.com/academe-01",
      "followers_url": "https://api.github.com/users/academe-01/followers",
      "following_url": "https://api.github.com/users/academe-01/following%7B/other_user%7D",
      "gists_url": "https://api.github.com/users/academe-01/gists%7B/gist_id%7D",
      "starred_url": "https://api.github.com/users/academe-01/starred%7B/owner%7D%7B/repo%7D",
      "subscriptions_url": "https://api.github.com/users/academe-01/subscriptions",
      "organizations_url": "https://api.github.com/users/academe-01/orgs",
      "repos_url": "https://api.github.com/users/academe-01/repos",
      "events_url": "https://api.github.com/users/academe-01/events%7B/privacy%7D",
      "received_events_url": "https://api.github.com/users/academe-01/received_events",
      "type": "User",
      "site_admin": false
    },
    "labels": [],
    "assignees": [],
    "author_association": "NONE",
    "locked": true,
    "comments": 1,
    "closed_at": "2022-03-29T09:10:09Z",
    "created_at": "2022-03-29T09:05:39Z",
    "updated_at": "2023-03-29T10:21:33Z"
  },
  "events": [
    {
      "event": "commented",
      "id": 1081623139,
      "node_id": "IC_kwDOABII585AeEJj",
      "url": "https://api.github.com/repos/bitcoin/bitcoin/issues/comments/1081623139",
      "actor": {
        "login": "MarcoFalke",
        "id": 6399679,
        "node_id": "MDQ6VXNlcjYzOTk2Nzk=",
        "avatar_url": "https://avatars.githubusercontent.com/u/6399679?v=4",
        "gravatar_id": "",
        "url": "https://api.github.com/users/MarcoFalke",
        "html_url": "https://github.com/MarcoFalke",
        "followers_url": "https://api.github.com/users/MarcoFalke/followers",
        "following_url": "https://api.github.com/users/MarcoFalke/following%7B/other_user%7D",
        "gists_url": "https://api.github.com/users/MarcoFalke/gists%7B/gist_id%7D",
        "starred_url": "https://api.github.com/users/MarcoFalke/starred%7B/owner%7D%7B/repo%7D",
        "subscriptions_url": "https://api.github.com/users/MarcoFalke/subscriptions",
        "organizations_url": "https://api.github.com/users/MarcoFalke/orgs",
        "repos_url": "https://api.github.com/users/MarcoFalke/repos",
        "events_url": "https://api.github.com/users/MarcoFalke/events%7B/privacy%7D",
        "received_events_url": "https://api.github.com/users/MarcoFalke/received_events",
        "type": "User",
        "site_admin": false
      },
      "commit_id": null,
      "commit_url": null,
      "created_at": "2022-03-29T09:10:09Z",
      "updated_at": "2022-03-29T09:10:09Z",
      "author_association": "MEMBER",
      "body": "Please refer to the release notes for changes: https://github.com/bitcoin/bitcoin/blob/master/doc/release-notes/release-notes-22.0.md#new-and-updated-rpcs\r\n\r\n",
      "user": {
        "login": "MarcoFalke",
        "id": 6399679,
        "node_id": "MDQ6VXNlcjYzOTk2Nzk=",
        "avatar_url": "https://avatars.githubusercontent.com/u/6399679?v=4",
        "gravatar_id": "",
        "url": "https://api.github.com/users/MarcoFalke",
        "html_url": "https://github.com/MarcoFalke",
        "followers_url": "https://api.github.com/users/MarcoFalke/followers",
        "following_url": "https://api.github.com/users/MarcoFalke/following%7B/other_user%7D",
        "gists_url": "https://api.github.com/users/MarcoFalke/gists%7B/gist_id%7D",
        "starred_url": "https://api.github.com/users/MarcoFalke/starred%7B/owner%7D%7B/repo%7D",
        "subscriptions_url": "https://api.github.com/users/MarcoFalke/subscriptions",
        "organizations_url": "https://api.github.com/users/MarcoFalke/orgs",
        "repos_url": "https://api.github.com/users/MarcoFalke/repos",
        "events_url": "https://api.github.com/users/MarcoFalke/events%7B/privacy%7D",
        "received_events_url": "https://api.github.com/users/MarcoFalke/received_events",
        "type": "User",
        "site_admin": false
      },
      "html_url": "https://github.com/bitcoin/bitcoin/issues/24702#issuecomment-1081623139",
      "issue_url": "https://api.github.com/repos/bitcoin/bitcoin/issues/24702"
    },
    {
      "event": "closed",
      "id": 6324835585,
      "node_id": "CE_lADOABII585Gmr_EzwAAAAF4_VUB",
      "url": "https://api.github.com/repos/bitcoin/bitcoin/issues/events/6324835585",
      "actor": {
        "login": "MarcoFalke",
        "id": 6399679,
        "node_id": "MDQ6VXNlcjYzOTk2Nzk=",
        "avatar_url": "https://avatars.githubusercontent.com/u/6399679?v=4",
        "gravatar_id": "",
        "url": "https://api.github.com/users/MarcoFalke",
        "html_url": "https://github.com/MarcoFalke",
        "followers_url": "https://api.github.com/users/MarcoFalke/followers",
        "following_url": "https://api.github.com/users/MarcoFalke/following%7B/other_user%7D",
        "gists_url": "https://api.github.com/users/MarcoFalke/gists%7B/gist_id%7D",
        "starred_url": "https://api.github.com/users/MarcoFalke/starred%7B/owner%7D%7B/repo%7D",
        "subscriptions_url": "https://api.github.com/users/MarcoFalke/subscriptions",
        "organizations_url": "https://api.github.com/users/MarcoFalke/orgs",
        "repos_url": "https://api.github.com/users/MarcoFalke/repos",
        "events_url": "https://api.github.com/users/MarcoFalke/events%7B/privacy%7D",
        "received_events_url": "https://api.github.com/users/MarcoFalke/received_events",
        "type": "User",
        "site_admin": false
      },
      "commit_id": null,
      "commit_url": null,
      "created_at": "2022-03-29T09:10:09Z"
    },
    {
      "event": "locked",
      "id": 8874671533,
      "node_id": "LOE_lADOABII585Gmr_EzwAAAAIQ-L2t",
      "url": "https://api.github.com/repos/bitcoin/bitcoin/issues/events/8874671533",
      "actor": {
        "login": "DrahtBot",
        "id": 39886733,
        "node_id": "MDQ6VXNlcjM5ODg2NzMz",
        "avatar_url": "https://avatars.githubusercontent.com/u/39886733?v=4",
        "gravatar_id": "",
        "url": "https://api.github.com/users/DrahtBot",
        "html_url": "https://github.com/DrahtBot",
        "followers_url": "https://api.github.com/users/DrahtBot/followers",
        "following_url": "https://api.github.com/users/DrahtBot/following%7B/other_user%7D",
        "gists_url": "https://api.github.com/users/DrahtBot/gists%7B/gist_id%7D",
        "starred_url": "https://api.github.com/users/DrahtBot/starred%7B/owner%7D%7B/repo%7D",
        "subscriptions_url": "https://api.github.com/users/DrahtBot/subscriptions",
        "organizations_url": "https://api.github.com/users/DrahtBot/orgs",
        "repos_url": "https://api.github.com/users/DrahtBot/repos",
        "events_url": "https://api.github.com/users/DrahtBot/events%7B/privacy%7D",
        "received_events_url": "https://api.github.com/users/DrahtBot/received_events",
        "type": "User",
        "site_admin": false
      },
      "commit_id": null,
      "commit_url": null,
      "created_at": "2023-03-29T10:21:33Z"
    }
  ]
}