{
  "type": "issue",
  "issue": {
    "id": 46566651,
    "node_id": "MDU6SXNzdWU0NjU2NjY1MQ==",
    "url": "https://api.github.com/repos/bitcoin/bitcoin/issues/5120",
    "repository_url": "https://api.github.com/repos/bitcoin/bitcoin",
    "labels_url": "https://api.github.com/repos/bitcoin/bitcoin/issues/5120/labels%7B/name%7D",
    "comments_url": "https://api.github.com/repos/bitcoin/bitcoin/issues/5120/comments",
    "events_url": "https://api.github.com/repos/bitcoin/bitcoin/issues/5120/events",
    "html_url": "https://github.com/bitcoin/bitcoin/issues/5120",
    "number": 5120,
    "state": "closed",
    "state_reason": "completed",
    "title": "Proposal: RPC Interface Improvements",
    "body": "We (at <a href=\"http://www.ziftr.com/\">ziftr</a>) are working on a cryptocurrency API and may want to alter the RPC interface in our copy of the codebase. We think that the alterations to the RPC interface that we would like to make may be useful to others, and we hope that any work we do will be available to the bitcoin community. Here we are outlining the proposal to get some feedback about how one could implement these changes.\n\nEssentially, we want to split up the work that is done in <tt>signrawtransaction</tt> so that the different parts can be used individually. This will make the RPC calls more modular, offering more flexibility to any developer who is using the daemon's RPC interface.\n\nThe basic idea is that <tt>signrawtransaction</tt> currently has to calculate the hashes that need to be signed, sign them with the appropriate private keys, and then bundle everything up into a raw transaction. We would like to make it so that each of these could be done separately. For us, this means the middle step, the calculation of signatures, being done on a different device.\n\nThe first change we would like to make is to add an RPC method call named <tt>getdatatosign</tt>. This takes the raw transaction and a few optional parameters, and calculates all data that must be signed. The returned value from this could be fed directly to <tt>signrawtransaction</tt>.\n\n// Creates an array of data that needs to be signed\n\n<pre>\ngetdatatosign \"hexstring\" ( [{\"txid\":\"id\", \"vout\":n, \"scriptPubKey\":\"hex\", \"redeemScript\":\"hex\"}, ...] sighashtype )\n</pre>\n\n\nReturn data format:\n\n<pre>\n[\n  {\n    \"txid\":\"id\",\n    \"vout\":n,\n    \"scriptPubKey\":\"hex\",\n    \"redeemScript\":\"hex\", /* Only present if p2sh. */\n    \"tosign\":\"hex\",\n    \"pubkey\": \"hex\", /* Present if not pay to pub key, which is most of the time. */\n    \"r\":\"\",\n    \"s\":\"\"\n  }\n]\n</pre>\n\n\n// If r and s are filled in, possibly by someone else who owns the keys,\n// then this can just bundle them up into the transaction ready to send. \n// If they don't exist, the daemon will look for the appropriate\n// keys to sign with and fill them in (or use the given private keys).\n// The datatosign, r, and s fields are not required to be keys in the\n// JSON object, so that this change is backwards compatible. \n\n<pre>\nsignrawtransaction \"hexstring\" ( [{\"txid\":\"id\", \"vout\":n, \"scriptPubKey\":\"hex\", \"redeemScript\":\"hex\", \"datatosign\":\"hex\", \"r\":\"hex\", \"s\":\"hex\" }] [\"privatekey1\",...] sighashtype )\n</pre>\n\n<pre>\n{\n    \"hex\": \"0100000001ba8bb652d537989726d242bf99153fb4e5de262ecbaa975ab1715abbb0597fe7000000006b483045022100e6db653e65c48838fc7d58f7696b20bb74d27b315a0a3cba3e80f6b9e5fc0d3402207a2613efe02663d8f8933922a328b8333d0acd31d43c738e2fbcc58d3f3ace87012102c1e842bd2c8314f0699d606a1c712e26abc9836d6f76fc64ee3f73f31b753945ffffffff0110a8a600000000001976a9142badcf56c4fb168773ff661606e5c9b8eb55d5fd88ac00000000\",\n    \"complete\": true\n}\n</pre>\n\n\nEssentially, this just exports some of the work that currently is done in <tt>signrawtransaction</tt> to a second method, and <tt>signrawtransaction</tt> can still be used as it was before, but now it can make a call to <tt>getdatatosign</tt> to do the first part of its work.\n\nThese may not be the optimal method names, parameters, or return values for such methods, but hopefully they convey the proposal. The goal is that this will make the rpc calls more modular, so that developers will have more flexibility in their applications. In particular, it will make it easier for applications where the signing is to be done on a different device.\n\nI'm sure there are details that need to be worked out, but I think the core idea here is a good one. Please let me know if there is anything here you think can be improved! Any feedback on this proposal would be greatly appreciated.\n",
    "user": {
      "login": "scmorse",
      "id": 4519249,
      "node_id": "MDQ6VXNlcjQ1MTkyNDk=",
      "avatar_url": "https://avatars.githubusercontent.com/u/4519249?v=4",
      "gravatar_id": "",
      "url": "https://api.github.com/users/scmorse",
      "html_url": "https://github.com/scmorse",
      "followers_url": "https://api.github.com/users/scmorse/followers",
      "following_url": "https://api.github.com/users/scmorse/following%7B/other_user%7D",
      "gists_url": "https://api.github.com/users/scmorse/gists%7B/gist_id%7D",
      "starred_url": "https://api.github.com/users/scmorse/starred%7B/owner%7D%7B/repo%7D",
      "subscriptions_url": "https://api.github.com/users/scmorse/subscriptions",
      "organizations_url": "https://api.github.com/users/scmorse/orgs",
      "repos_url": "https://api.github.com/users/scmorse/repos",
      "events_url": "https://api.github.com/users/scmorse/events%7B/privacy%7D",
      "received_events_url": "https://api.github.com/users/scmorse/received_events",
      "type": "User",
      "site_admin": false
    },
    "labels": [
      {
        "id": 98279177,
        "node_id": "MDU6TGFiZWw5ODI3OTE3Nw==",
        "url": "https://api.github.com/repos/bitcoin/bitcoin/labels/RPC/REST/ZMQ",
        "name": "RPC/REST/ZMQ",
        "color": "0052cc",
        "default": false
      }
    ],
    "assignees": [],
    "author_association": "NONE",
    "locked": true,
    "active_lock_reason": "resolved",
    "comments": 8,
    "closed_at": "2017-03-28T02:47:47Z",
    "created_at": "2014-10-22T22:07:19Z",
    "updated_at": "2021-09-08T12:25:42Z"
  },
  "events": [
    {
      "event": "labeled",
      "id": 182623354,
      "node_id": "MDEyOkxhYmVsZWRFdmVudDE4MjYyMzM1NA==",
      "url": "https://api.github.com/repos/bitcoin/bitcoin/issues/events/182623354",
      "actor": {
        "login": "laanwj",
        "id": 126646,
        "node_id": "MDQ6VXNlcjEyNjY0Ng==",
        "avatar_url": "https://avatars.githubusercontent.com/u/126646?v=4",
        "gravatar_id": "",
        "url": "https://api.github.com/users/laanwj",
        "html_url": "https://github.com/laanwj",
        "followers_url": "https://api.github.com/users/laanwj/followers",
        "following_url": "https://api.github.com/users/laanwj/following%7B/other_user%7D",
        "gists_url": "https://api.github.com/users/laanwj/gists%7B/gist_id%7D",
        "starred_url": "https://api.github.com/users/laanwj/starred%7B/owner%7D%7B/repo%7D",
        "subscriptions_url": "https://api.github.com/users/laanwj/subscriptions",
        "organizations_url": "https://api.github.com/users/laanwj/orgs",
        "repos_url": "https://api.github.com/users/laanwj/repos",
        "events_url": "https://api.github.com/users/laanwj/events%7B/privacy%7D",
        "received_events_url": "https://api.github.com/users/laanwj/received_events",
        "type": "User",
        "site_admin": false
      },
      "commit_id": null,
      "commit_url": null,
      "created_at": "2014-10-23T09:58:56Z",
      "label": {
        "name": "RPC",
        "color": "0052cc"
      }
    },
    {
      "event": "commented",
      "id": 60247837,
      "node_id": "MDEyOklzc3VlQ29tbWVudDYwMjQ3ODM3",
      "url": "https://api.github.com/repos/bitcoin/bitcoin/issues/comments/60247837",
      "actor": {
        "login": "gavinandresen",
        "id": 331997,
        "node_id": "MDQ6VXNlcjMzMTk5Nw==",
        "avatar_url": "https://avatars.githubusercontent.com/u/331997?v=4",
        "gravatar_id": "",
        "url": "https://api.github.com/users/gavinandresen",
        "html_url": "https://github.com/gavinandresen",
        "followers_url": "https://api.github.com/users/gavinandresen/followers",
        "following_url": "https://api.github.com/users/gavinandresen/following%7B/other_user%7D",
        "gists_url": "https://api.github.com/users/gavinandresen/gists%7B/gist_id%7D",
        "starred_url": "https://api.github.com/users/gavinandresen/starred%7B/owner%7D%7B/repo%7D",
        "subscriptions_url": "https://api.github.com/users/gavinandresen/subscriptions",
        "organizations_url": "https://api.github.com/users/gavinandresen/orgs",
        "repos_url": "https://api.github.com/users/gavinandresen/repos",
        "events_url": "https://api.github.com/users/gavinandresen/events%7B/privacy%7D",
        "received_events_url": "https://api.github.com/users/gavinandresen/received_events",
        "type": "User",
        "site_admin": false
      },
      "commit_id": null,
      "commit_url": null,
      "created_at": "2014-10-23T14:33:23Z",
      "updated_at": "2014-10-23T14:33:23Z",
      "author_association": "CONTRIBUTOR",
      "body": "Are you proposing an incompatible change to the existing signrawtransaction RPC call?\n",
      "user": {
        "login": "gavinandresen",
        "id": 331997,
        "node_id": "MDQ6VXNlcjMzMTk5Nw==",
        "avatar_url": "https://avatars.githubusercontent.com/u/331997?v=4",
        "gravatar_id": "",
        "url": "https://api.github.com/users/gavinandresen",
        "html_url": "https://github.com/gavinandresen",
        "followers_url": "https://api.github.com/users/gavinandresen/followers",
        "following_url": "https://api.github.com/users/gavinandresen/following%7B/other_user%7D",
        "gists_url": "https://api.github.com/users/gavinandresen/gists%7B/gist_id%7D",
        "starred_url": "https://api.github.com/users/gavinandresen/starred%7B/owner%7D%7B/repo%7D",
        "subscriptions_url": "https://api.github.com/users/gavinandresen/subscriptions",
        "organizations_url": "https://api.github.com/users/gavinandresen/orgs",
        "repos_url": "https://api.github.com/users/gavinandresen/repos",
        "events_url": "https://api.github.com/users/gavinandresen/events%7B/privacy%7D",
        "received_events_url": "https://api.github.com/users/gavinandresen/received_events",
        "type": "User",
        "site_admin": false
      },
      "html_url": "https://github.com/bitcoin/bitcoin/issues/5120#issuecomment-60247837",
      "issue_url": "https://api.github.com/repos/bitcoin/bitcoin/issues/5120"
    },
    {
      "event": "commented",
      "id": 60248671,
      "node_id": "MDEyOklzc3VlQ29tbWVudDYwMjQ4Njcx",
      "url": "https://api.github.com/repos/bitcoin/bitcoin/issues/comments/60248671",
      "actor": {
        "login": "scmorse",
        "id": 4519249,
        "node_id": "MDQ6VXNlcjQ1MTkyNDk=",
        "avatar_url": "https://avatars.githubusercontent.com/u/4519249?v=4",
        "gravatar_id": "",
        "url": "https://api.github.com/users/scmorse",
        "html_url": "https://github.com/scmorse",
        "followers_url": "https://api.github.com/users/scmorse/followers",
        "following_url": "https://api.github.com/users/scmorse/following%7B/other_user%7D",
        "gists_url": "https://api.github.com/users/scmorse/gists%7B/gist_id%7D",
        "starred_url": "https://api.github.com/users/scmorse/starred%7B/owner%7D%7B/repo%7D",
        "subscriptions_url": "https://api.github.com/users/scmorse/subscriptions",
        "organizations_url": "https://api.github.com/users/scmorse/orgs",
        "repos_url": "https://api.github.com/users/scmorse/repos",
        "events_url": "https://api.github.com/users/scmorse/events%7B/privacy%7D",
        "received_events_url": "https://api.github.com/users/scmorse/received_events",
        "type": "User",
        "site_admin": false
      },
      "commit_id": null,
      "commit_url": null,
      "created_at": "2014-10-23T14:38:38Z",
      "updated_at": "2014-10-23T14:39:07Z",
      "author_association": "NONE",
      "body": "No, I don't believe so, I think everything would be backwards compatible. There would be new JSON arguments that could be added, but they wouldn't be required to be there. And signrawtransaction would still work exactly as before when not used with these extra new JSON params. Signrawtransaction could just make a call to getdatatosign to do part of its work. \n",
      "user": {
        "login": "scmorse",
        "id": 4519249,
        "node_id": "MDQ6VXNlcjQ1MTkyNDk=",
        "avatar_url": "https://avatars.githubusercontent.com/u/4519249?v=4",
        "gravatar_id": "",
        "url": "https://api.github.com/users/scmorse",
        "html_url": "https://github.com/scmorse",
        "followers_url": "https://api.github.com/users/scmorse/followers",
        "following_url": "https://api.github.com/users/scmorse/following%7B/other_user%7D",
        "gists_url": "https://api.github.com/users/scmorse/gists%7B/gist_id%7D",
        "starred_url": "https://api.github.com/users/scmorse/starred%7B/owner%7D%7B/repo%7D",
        "subscriptions_url": "https://api.github.com/users/scmorse/subscriptions",
        "organizations_url": "https://api.github.com/users/scmorse/orgs",
        "repos_url": "https://api.github.com/users/scmorse/repos",
        "events_url": "https://api.github.com/users/scmorse/events%7B/privacy%7D",
        "received_events_url": "https://api.github.com/users/scmorse/received_events",
        "type": "User",
        "site_admin": false
      },
      "html_url": "https://github.com/bitcoin/bitcoin/issues/5120#issuecomment-60248671",
      "issue_url": "https://api.github.com/repos/bitcoin/bitcoin/issues/5120"
    },
    {
      "event": "commented",
      "id": 60249709,
      "node_id": "MDEyOklzc3VlQ29tbWVudDYwMjQ5NzA5",
      "url": "https://api.github.com/repos/bitcoin/bitcoin/issues/comments/60249709",
      "actor": {
        "login": "jgarzik",
        "id": 494411,
        "node_id": "MDQ6VXNlcjQ5NDQxMQ==",
        "avatar_url": "https://avatars.githubusercontent.com/u/494411?v=4",
        "gravatar_id": "",
        "url": "https://api.github.com/users/jgarzik",
        "html_url": "https://github.com/jgarzik",
        "followers_url": "https://api.github.com/users/jgarzik/followers",
        "following_url": "https://api.github.com/users/jgarzik/following%7B/other_user%7D",
        "gists_url": "https://api.github.com/users/jgarzik/gists%7B/gist_id%7D",
        "starred_url": "https://api.github.com/users/jgarzik/starred%7B/owner%7D%7B/repo%7D",
        "subscriptions_url": "https://api.github.com/users/jgarzik/subscriptions",
        "organizations_url": "https://api.github.com/users/jgarzik/orgs",
        "repos_url": "https://api.github.com/users/jgarzik/repos",
        "events_url": "https://api.github.com/users/jgarzik/events%7B/privacy%7D",
        "received_events_url": "https://api.github.com/users/jgarzik/received_events",
        "type": "User",
        "site_admin": false
      },
      "commit_id": null,
      "commit_url": null,
      "created_at": "2014-10-23T14:45:36Z",
      "updated_at": "2014-10-23T14:46:15Z",
      "author_association": "CONTRIBUTOR",
      "body": "Check out the new `bitcoin-tx` utility.  It is straightforward to add new \"calls\" as discrete elements there.  bitcoin-tx offers the same capabilities with `createrawtransaction` and `sendrawtransaction`.\n\nFor any RPCs which are \"pure functions\" -- they do not rely on bitcoind wallet data -- they can be used via this utility instead.  bitcoin-tx does not use RPC calls (at present), and does not access wallet data.\n\nLong term, \"pure function\" style use will be exported via utilities rather than RPCs.  e.g. You do not need to contact a server, simply to execute `decoderawtransaction`.\n",
      "user": {
        "login": "jgarzik",
        "id": 494411,
        "node_id": "MDQ6VXNlcjQ5NDQxMQ==",
        "avatar_url": "https://avatars.githubusercontent.com/u/494411?v=4",
        "gravatar_id": "",
        "url": "https://api.github.com/users/jgarzik",
        "html_url": "https://github.com/jgarzik",
        "followers_url": "https://api.github.com/users/jgarzik/followers",
        "following_url": "https://api.github.com/users/jgarzik/following%7B/other_user%7D",
        "gists_url": "https://api.github.com/users/jgarzik/gists%7B/gist_id%7D",
        "starred_url": "https://api.github.com/users/jgarzik/starred%7B/owner%7D%7B/repo%7D",
        "subscriptions_url": "https://api.github.com/users/jgarzik/subscriptions",
        "organizations_url": "https://api.github.com/users/jgarzik/orgs",
        "repos_url": "https://api.github.com/users/jgarzik/repos",
        "events_url": "https://api.github.com/users/jgarzik/events%7B/privacy%7D",
        "received_events_url": "https://api.github.com/users/jgarzik/received_events",
        "type": "User",
        "site_admin": false
      },
      "html_url": "https://github.com/bitcoin/bitcoin/issues/5120#issuecomment-60249709",
      "issue_url": "https://api.github.com/repos/bitcoin/bitcoin/issues/5120"
    },
    {
      "event": "commented",
      "id": 60254468,
      "node_id": "MDEyOklzc3VlQ29tbWVudDYwMjU0NDY4",
      "url": "https://api.github.com/repos/bitcoin/bitcoin/issues/comments/60254468",
      "actor": {
        "login": "scmorse",
        "id": 4519249,
        "node_id": "MDQ6VXNlcjQ1MTkyNDk=",
        "avatar_url": "https://avatars.githubusercontent.com/u/4519249?v=4",
        "gravatar_id": "",
        "url": "https://api.github.com/users/scmorse",
        "html_url": "https://github.com/scmorse",
        "followers_url": "https://api.github.com/users/scmorse/followers",
        "following_url": "https://api.github.com/users/scmorse/following%7B/other_user%7D",
        "gists_url": "https://api.github.com/users/scmorse/gists%7B/gist_id%7D",
        "starred_url": "https://api.github.com/users/scmorse/starred%7B/owner%7D%7B/repo%7D",
        "subscriptions_url": "https://api.github.com/users/scmorse/subscriptions",
        "organizations_url": "https://api.github.com/users/scmorse/orgs",
        "repos_url": "https://api.github.com/users/scmorse/repos",
        "events_url": "https://api.github.com/users/scmorse/events%7B/privacy%7D",
        "received_events_url": "https://api.github.com/users/scmorse/received_events",
        "type": "User",
        "site_admin": false
      },
      "commit_id": null,
      "commit_url": null,
      "created_at": "2014-10-23T15:14:23Z",
      "updated_at": "2014-10-23T15:27:04Z",
      "author_association": "NONE",
      "body": "<p>So maybe <tt>getdatatosign</tt> should just be another utility added to <tt>bitcoin-tx</tt>? That seems to make sense. Could <tt>signrawtransaction</tt> still make use of the <tt>getdatatosign</tt> if this were the case?</p>\n\n<p>Would <tt>signrawtransaction</tt> be a method of <tt>bitcoin-tx</tt>? Is there any documentation on how the calls will be split up between <tt>bitcoin-cli</tt> and <tt>bitcoin-tx</tt>?</p>\n",
      "user": {
        "login": "scmorse",
        "id": 4519249,
        "node_id": "MDQ6VXNlcjQ1MTkyNDk=",
        "avatar_url": "https://avatars.githubusercontent.com/u/4519249?v=4",
        "gravatar_id": "",
        "url": "https://api.github.com/users/scmorse",
        "html_url": "https://github.com/scmorse",
        "followers_url": "https://api.github.com/users/scmorse/followers",
        "following_url": "https://api.github.com/users/scmorse/following%7B/other_user%7D",
        "gists_url": "https://api.github.com/users/scmorse/gists%7B/gist_id%7D",
        "starred_url": "https://api.github.com/users/scmorse/starred%7B/owner%7D%7B/repo%7D",
        "subscriptions_url": "https://api.github.com/users/scmorse/subscriptions",
        "organizations_url": "https://api.github.com/users/scmorse/orgs",
        "repos_url": "https://api.github.com/users/scmorse/repos",
        "events_url": "https://api.github.com/users/scmorse/events%7B/privacy%7D",
        "received_events_url": "https://api.github.com/users/scmorse/received_events",
        "type": "User",
        "site_admin": false
      },
      "html_url": "https://github.com/bitcoin/bitcoin/issues/5120#issuecomment-60254468",
      "issue_url": "https://api.github.com/repos/bitcoin/bitcoin/issues/5120"
    },
    {
      "event": "commented",
      "id": 60254799,
      "node_id": "MDEyOklzc3VlQ29tbWVudDYwMjU0Nzk5",
      "url": "https://api.github.com/repos/bitcoin/bitcoin/issues/comments/60254799",
      "actor": {
        "login": "jgarzik",
        "id": 494411,
        "node_id": "MDQ6VXNlcjQ5NDQxMQ==",
        "avatar_url": "https://avatars.githubusercontent.com/u/494411?v=4",
        "gravatar_id": "",
        "url": "https://api.github.com/users/jgarzik",
        "html_url": "https://github.com/jgarzik",
        "followers_url": "https://api.github.com/users/jgarzik/followers",
        "following_url": "https://api.github.com/users/jgarzik/following%7B/other_user%7D",
        "gists_url": "https://api.github.com/users/jgarzik/gists%7B/gist_id%7D",
        "starred_url": "https://api.github.com/users/jgarzik/starred%7B/owner%7D%7B/repo%7D",
        "subscriptions_url": "https://api.github.com/users/jgarzik/subscriptions",
        "organizations_url": "https://api.github.com/users/jgarzik/orgs",
        "repos_url": "https://api.github.com/users/jgarzik/repos",
        "events_url": "https://api.github.com/users/jgarzik/events%7B/privacy%7D",
        "received_events_url": "https://api.github.com/users/jgarzik/received_events",
        "type": "User",
        "site_admin": false
      },
      "commit_id": null,
      "commit_url": null,
      "created_at": "2014-10-23T15:16:18Z",
      "updated_at": "2014-10-23T15:16:18Z",
      "author_association": "CONTRIBUTOR",
      "body": "@scmorse  getrawtransaction?\n",
      "user": {
        "login": "jgarzik",
        "id": 494411,
        "node_id": "MDQ6VXNlcjQ5NDQxMQ==",
        "avatar_url": "https://avatars.githubusercontent.com/u/494411?v=4",
        "gravatar_id": "",
        "url": "https://api.github.com/users/jgarzik",
        "html_url": "https://github.com/jgarzik",
        "followers_url": "https://api.github.com/users/jgarzik/followers",
        "following_url": "https://api.github.com/users/jgarzik/following%7B/other_user%7D",
        "gists_url": "https://api.github.com/users/jgarzik/gists%7B/gist_id%7D",
        "starred_url": "https://api.github.com/users/jgarzik/starred%7B/owner%7D%7B/repo%7D",
        "subscriptions_url": "https://api.github.com/users/jgarzik/subscriptions",
        "organizations_url": "https://api.github.com/users/jgarzik/orgs",
        "repos_url": "https://api.github.com/users/jgarzik/repos",
        "events_url": "https://api.github.com/users/jgarzik/events%7B/privacy%7D",
        "received_events_url": "https://api.github.com/users/jgarzik/received_events",
        "type": "User",
        "site_admin": false
      },
      "html_url": "https://github.com/bitcoin/bitcoin/issues/5120#issuecomment-60254799",
      "issue_url": "https://api.github.com/repos/bitcoin/bitcoin/issues/5120"
    },
    {
      "event": "mentioned",
      "id": 182770583,
      "node_id": "MDE0Ok1lbnRpb25lZEV2ZW50MTgyNzcwNTgz",
      "url": "https://api.github.com/repos/bitcoin/bitcoin/issues/events/182770583",
      "actor": {
        "login": "scmorse",
        "id": 4519249,
        "node_id": "MDQ6VXNlcjQ1MTkyNDk=",
        "avatar_url": "https://avatars.githubusercontent.com/u/4519249?v=4",
        "gravatar_id": "",
        "url": "https://api.github.com/users/scmorse",
        "html_url": "https://github.com/scmorse",
        "followers_url": "https://api.github.com/users/scmorse/followers",
        "following_url": "https://api.github.com/users/scmorse/following%7B/other_user%7D",
        "gists_url": "https://api.github.com/users/scmorse/gists%7B/gist_id%7D",
        "starred_url": "https://api.github.com/users/scmorse/starred%7B/owner%7D%7B/repo%7D",
        "subscriptions_url": "https://api.github.com/users/scmorse/subscriptions",
        "organizations_url": "https://api.github.com/users/scmorse/orgs",
        "repos_url": "https://api.github.com/users/scmorse/repos",
        "events_url": "https://api.github.com/users/scmorse/events%7B/privacy%7D",
        "received_events_url": "https://api.github.com/users/scmorse/received_events",
        "type": "User",
        "site_admin": false
      },
      "commit_id": null,
      "commit_url": null,
      "created_at": "2014-10-23T15:16:18Z"
    },
    {
      "event": "subscribed",
      "id": 182770584,
      "node_id": "MDE1OlN1YnNjcmliZWRFdmVudDE4Mjc3MDU4NA==",
      "url": "https://api.github.com/repos/bitcoin/bitcoin/issues/events/182770584",
      "actor": {
        "login": "scmorse",
        "id": 4519249,
        "node_id": "MDQ6VXNlcjQ1MTkyNDk=",
        "avatar_url": "https://avatars.githubusercontent.com/u/4519249?v=4",
        "gravatar_id": "",
        "url": "https://api.github.com/users/scmorse",
        "html_url": "https://github.com/scmorse",
        "followers_url": "https://api.github.com/users/scmorse/followers",
        "following_url": "https://api.github.com/users/scmorse/following%7B/other_user%7D",
        "gists_url": "https://api.github.com/users/scmorse/gists%7B/gist_id%7D",
        "starred_url": "https://api.github.com/users/scmorse/starred%7B/owner%7D%7B/repo%7D",
        "subscriptions_url": "https://api.github.com/users/scmorse/subscriptions",
        "organizations_url": "https://api.github.com/users/scmorse/orgs",
        "repos_url": "https://api.github.com/users/scmorse/repos",
        "events_url": "https://api.github.com/users/scmorse/events%7B/privacy%7D",
        "received_events_url": "https://api.github.com/users/scmorse/received_events",
        "type": "User",
        "site_admin": false
      },
      "commit_id": null,
      "commit_url": null,
      "created_at": "2014-10-23T15:16:18Z"
    },
    {
      "event": "commented",
      "id": 60255016,
      "node_id": "MDEyOklzc3VlQ29tbWVudDYwMjU1MDE2",
      "url": "https://api.github.com/repos/bitcoin/bitcoin/issues/comments/60255016",
      "actor": {
        "login": "scmorse",
        "id": 4519249,
        "node_id": "MDQ6VXNlcjQ1MTkyNDk=",
        "avatar_url": "https://avatars.githubusercontent.com/u/4519249?v=4",
        "gravatar_id": "",
        "url": "https://api.github.com/users/scmorse",
        "html_url": "https://github.com/scmorse",
        "followers_url": "https://api.github.com/users/scmorse/followers",
        "following_url": "https://api.github.com/users/scmorse/following%7B/other_user%7D",
        "gists_url": "https://api.github.com/users/scmorse/gists%7B/gist_id%7D",
        "starred_url": "https://api.github.com/users/scmorse/starred%7B/owner%7D%7B/repo%7D",
        "subscriptions_url": "https://api.github.com/users/scmorse/subscriptions",
        "organizations_url": "https://api.github.com/users/scmorse/orgs",
        "repos_url": "https://api.github.com/users/scmorse/repos",
        "events_url": "https://api.github.com/users/scmorse/events%7B/privacy%7D",
        "received_events_url": "https://api.github.com/users/scmorse/received_events",
        "type": "User",
        "site_admin": false
      },
      "commit_id": null,
      "commit_url": null,
      "created_at": "2014-10-23T15:17:35Z",
      "updated_at": "2014-10-23T15:30:21Z",
      "author_association": "NONE",
      "body": "Sorry, meant <tt>signrawtransaction</tt>. Changed my prev comment. \n",
      "user": {
        "login": "scmorse",
        "id": 4519249,
        "node_id": "MDQ6VXNlcjQ1MTkyNDk=",
        "avatar_url": "https://avatars.githubusercontent.com/u/4519249?v=4",
        "gravatar_id": "",
        "url": "https://api.github.com/users/scmorse",
        "html_url": "https://github.com/scmorse",
        "followers_url": "https://api.github.com/users/scmorse/followers",
        "following_url": "https://api.github.com/users/scmorse/following%7B/other_user%7D",
        "gists_url": "https://api.github.com/users/scmorse/gists%7B/gist_id%7D",
        "starred_url": "https://api.github.com/users/scmorse/starred%7B/owner%7D%7B/repo%7D",
        "subscriptions_url": "https://api.github.com/users/scmorse/subscriptions",
        "organizations_url": "https://api.github.com/users/scmorse/orgs",
        "repos_url": "https://api.github.com/users/scmorse/repos",
        "events_url": "https://api.github.com/users/scmorse/events%7B/privacy%7D",
        "received_events_url": "https://api.github.com/users/scmorse/received_events",
        "type": "User",
        "site_admin": false
      },
      "html_url": "https://github.com/bitcoin/bitcoin/issues/5120#issuecomment-60255016",
      "issue_url": "https://api.github.com/repos/bitcoin/bitcoin/issues/5120"
    },
    {
      "event": "commented",
      "id": 61364022,
      "node_id": "MDEyOklzc3VlQ29tbWVudDYxMzY0MDIy",
      "url": "https://api.github.com/repos/bitcoin/bitcoin/issues/comments/61364022",
      "actor": {
        "login": "benjiqq",
        "id": 5390515,
        "node_id": "MDQ6VXNlcjUzOTA1MTU=",
        "avatar_url": "https://avatars.githubusercontent.com/u/5390515?v=4",
        "gravatar_id": "",
        "url": "https://api.github.com/users/benjiqq",
        "html_url": "https://github.com/benjiqq",
        "followers_url": "https://api.github.com/users/benjiqq/followers",
        "following_url": "https://api.github.com/users/benjiqq/following%7B/other_user%7D",
        "gists_url": "https://api.github.com/users/benjiqq/gists%7B/gist_id%7D",
        "starred_url": "https://api.github.com/users/benjiqq/starred%7B/owner%7D%7B/repo%7D",
        "subscriptions_url": "https://api.github.com/users/benjiqq/subscriptions",
        "organizations_url": "https://api.github.com/users/benjiqq/orgs",
        "repos_url": "https://api.github.com/users/benjiqq/repos",
        "events_url": "https://api.github.com/users/benjiqq/events%7B/privacy%7D",
        "received_events_url": "https://api.github.com/users/benjiqq/received_events",
        "type": "User",
        "site_admin": false
      },
      "commit_id": null,
      "commit_url": null,
      "created_at": "2014-11-01T10:28:55Z",
      "updated_at": "2014-11-01T10:33:42Z",
      "author_association": "NONE",
      "body": "@scmorse Thanks for the work. Could you provide a Use-case for this?\n\nI think its important to distinguish between internal utilities and API's. bitcoin-tx is not exposed to user-space in the same way the RPC is. RPC is widely known and documented.\n",
      "user": {
        "login": "benjiqq",
        "id": 5390515,
        "node_id": "MDQ6VXNlcjUzOTA1MTU=",
        "avatar_url": "https://avatars.githubusercontent.com/u/5390515?v=4",
        "gravatar_id": "",
        "url": "https://api.github.com/users/benjiqq",
        "html_url": "https://github.com/benjiqq",
        "followers_url": "https://api.github.com/users/benjiqq/followers",
        "following_url": "https://api.github.com/users/benjiqq/following%7B/other_user%7D",
        "gists_url": "https://api.github.com/users/benjiqq/gists%7B/gist_id%7D",
        "starred_url": "https://api.github.com/users/benjiqq/starred%7B/owner%7D%7B/repo%7D",
        "subscriptions_url": "https://api.github.com/users/benjiqq/subscriptions",
        "organizations_url": "https://api.github.com/users/benjiqq/orgs",
        "repos_url": "https://api.github.com/users/benjiqq/repos",
        "events_url": "https://api.github.com/users/benjiqq/events%7B/privacy%7D",
        "received_events_url": "https://api.github.com/users/benjiqq/received_events",
        "type": "User",
        "site_admin": false
      },
      "html_url": "https://github.com/bitcoin/bitcoin/issues/5120#issuecomment-61364022",
      "issue_url": "https://api.github.com/repos/bitcoin/bitcoin/issues/5120"
    },
    {
      "event": "mentioned",
      "id": 186922935,
      "node_id": "MDE0Ok1lbnRpb25lZEV2ZW50MTg2OTIyOTM1",
      "url": "https://api.github.com/repos/bitcoin/bitcoin/issues/events/186922935",
      "actor": {
        "login": "scmorse",
        "id": 4519249,
        "node_id": "MDQ6VXNlcjQ1MTkyNDk=",
        "avatar_url": "https://avatars.githubusercontent.com/u/4519249?v=4",
        "gravatar_id": "",
        "url": "https://api.github.com/users/scmorse",
        "html_url": "https://github.com/scmorse",
        "followers_url": "https://api.github.com/users/scmorse/followers",
        "following_url": "https://api.github.com/users/scmorse/following%7B/other_user%7D",
        "gists_url": "https://api.github.com/users/scmorse/gists%7B/gist_id%7D",
        "starred_url": "https://api.github.com/users/scmorse/starred%7B/owner%7D%7B/repo%7D",
        "subscriptions_url": "https://api.github.com/users/scmorse/subscriptions",
        "organizations_url": "https://api.github.com/users/scmorse/orgs",
        "repos_url": "https://api.github.com/users/scmorse/repos",
        "events_url": "https://api.github.com/users/scmorse/events%7B/privacy%7D",
        "received_events_url": "https://api.github.com/users/scmorse/received_events",
        "type": "User",
        "site_admin": false
      },
      "commit_id": null,
      "commit_url": null,
      "created_at": "2014-11-01T10:28:55Z"
    },
    {
      "event": "subscribed",
      "id": 186922936,
      "node_id": "MDE1OlN1YnNjcmliZWRFdmVudDE4NjkyMjkzNg==",
      "url": "https://api.github.com/repos/bitcoin/bitcoin/issues/events/186922936",
      "actor": {
        "login": "scmorse",
        "id": 4519249,
        "node_id": "MDQ6VXNlcjQ1MTkyNDk=",
        "avatar_url": "https://avatars.githubusercontent.com/u/4519249?v=4",
        "gravatar_id": "",
        "url": "https://api.github.com/users/scmorse",
        "html_url": "https://github.com/scmorse",
        "followers_url": "https://api.github.com/users/scmorse/followers",
        "following_url": "https://api.github.com/users/scmorse/following%7B/other_user%7D",
        "gists_url": "https://api.github.com/users/scmorse/gists%7B/gist_id%7D",
        "starred_url": "https://api.github.com/users/scmorse/starred%7B/owner%7D%7B/repo%7D",
        "subscriptions_url": "https://api.github.com/users/scmorse/subscriptions",
        "organizations_url": "https://api.github.com/users/scmorse/orgs",
        "repos_url": "https://api.github.com/users/scmorse/repos",
        "events_url": "https://api.github.com/users/scmorse/events%7B/privacy%7D",
        "received_events_url": "https://api.github.com/users/scmorse/received_events",
        "type": "User",
        "site_admin": false
      },
      "commit_id": null,
      "commit_url": null,
      "created_at": "2014-11-01T10:28:55Z"
    },
    {
      "event": "commented",
      "id": 61412091,
      "node_id": "MDEyOklzc3VlQ29tbWVudDYxNDEyMDkx",
      "url": "https://api.github.com/repos/bitcoin/bitcoin/issues/comments/61412091",
      "actor": {
        "login": "scmorse",
        "id": 4519249,
        "node_id": "MDQ6VXNlcjQ1MTkyNDk=",
        "avatar_url": "https://avatars.githubusercontent.com/u/4519249?v=4",
        "gravatar_id": "",
        "url": "https://api.github.com/users/scmorse",
        "html_url": "https://github.com/scmorse",
        "followers_url": "https://api.github.com/users/scmorse/followers",
        "following_url": "https://api.github.com/users/scmorse/following%7B/other_user%7D",
        "gists_url": "https://api.github.com/users/scmorse/gists%7B/gist_id%7D",
        "starred_url": "https://api.github.com/users/scmorse/starred%7B/owner%7D%7B/repo%7D",
        "subscriptions_url": "https://api.github.com/users/scmorse/subscriptions",
        "organizations_url": "https://api.github.com/users/scmorse/orgs",
        "repos_url": "https://api.github.com/users/scmorse/repos",
        "events_url": "https://api.github.com/users/scmorse/events%7B/privacy%7D",
        "received_events_url": "https://api.github.com/users/scmorse/received_events",
        "type": "User",
        "site_admin": false
      },
      "commit_id": null,
      "commit_url": null,
      "created_at": "2014-11-02T16:04:17Z",
      "updated_at": "2014-11-02T16:04:17Z",
      "author_association": "NONE",
      "body": "This could be part of a <tt>bitcoin-tx</tt> utility, but it also can make use of information in the actual blockchain, so having it as part of the actual <tt>bitcoin-cli</tt> as well seems to make sense.\n\nSure, I can tell you how we are planning to use this and give an example.\n\nWe are creating an API that uses our servers to make and deal with raw transactions so that the user doesn't have to. Essentially, we use the <tt>getdatatosign</tt> RPC call to get the data that needs to be signed, send it to the phones, they sign it with their keys and return the result (R,S, pub key). Our server can then use these to complete the transaction. \n\nI actually just finished coding this up, using the Litecoin project as a starting point, and did an example of it working, so I'll show it below. This all takes place on the Litecoin testnet. \n\nSAMPLE REQUEST FROM PHONE:\n\n<pre>\n{\n    \"fee_per_kb\": 10000,\n    \"surplus_refund_address\": \"mrVKajRiXK7vCn3auzx2qb7Gd3cDUSiC6L\",\n    \"inputs_addresses\": [\n        \"mjYN7McYzwius96QGpDDZYXaaCR1ZkAX3a\",\n        \"mz7veJL7NPAsJqu5nuLWvRhpNkVHW6PjbR\"\n    ],\n    \"outputs_addresses\": [\n        {\n            \"address\": \"mrVKajRiXK7vCn3auzx2qb7Gd3cDUSiC6L\",\n            \"amount\": 5999000000\n        }\n    ]\n}\n</pre>\n\nSERVER FINDS THESE TX OUTS:\n\n<pre>\n(From tx: eb780798c67a9ec63129eace11d72df16f1ffacaf5ef23519d235f7ff670e488)\n[  \n  {  \n    \"value\":30.00000000,\n    \"n\":3,\n    \"scriptPubKey\":{  \n      \"asm\":\"OP_DUP OP_HASH160 2c24cca04e5115cac70191543293c41fc8589f56 OP_EQUALVERIFY OP_CHECKSIG\",\n      \"hex\":\"76a9142c24cca04e5115cac70191543293c41fc8589f5688ac\",\n      \"reqSigs\":1,\n      \"type\":\"pubkeyhash\",\n      \"addresses\":[  \n        \"mjYN7McYzwius96QGpDDZYXaaCR1ZkAX3a\"\n      ]\n    }\n  },\n  {  \n    \"value\":30.00000000,\n    \"n\":4,\n    \"scriptPubKey\":{  \n      \"asm\":\"OP_DUP OP_HASH160 cc0f71d3b6c2238d73aab4cab4226262eca9f1d4 OP_EQUALVERIFY OP_CHECKSIG\",\n      \"hex\":\"76a914cc0f71d3b6c2238d73aab4cab4226262eca9f1d488ac\",\n      \"reqSigs\":1,\n      \"type\":\"pubkeyhash\",\n      \"addresses\":[  \n        \"mz7veJL7NPAsJqu5nuLWvRhpNkVHW6PjbR\"\n      ]\n    }\n  }\n]\n</pre>\n\nFIRST MAKES THE RAW TRANSACTION:\n\n<pre>\n$ ./litecoind createrawtransaction '[{\"txid\":\"eb780798c67a9ec63129eace11d72df16f1ffacaf5ef23519d235f7ff670e488\", \"vout\":3}, {\"txid\":\"eb780798c67a9ec63129eace11d72df16f1ffacaf5ef23519d235f7ff670e488\", \"vout\":4}]' '{\"mrVKajRiXK7vCn3auzx2qb7Gd3cDUSiC6L\":59.99000000}'\n</pre>\n\n<pre>\n010000000288e470f67f5f239d5123eff5cafa1f6ff12dd711ceea2931c69e7ac6980778eb0300000000ffffffff88e470f67f5f239d5123eff5cafa1f6ff12dd711ceea2931c69e7ac6980778eb0400000000ffffffff01c0799165010000001976a914785a5258008e272dd1a434eef745fb1277abeee688ac00000000\n</pre>\n\n\f\nGET THE DATA THAT NEEDS TO BE SIGNED AND SEND IT TO THE PHONES:\n\n<pre>\n$ ./litecoind getdatatosign 010000000288e470f67f5f239d5123eff5cafa1f6ff12dd711ceea2931c69e7ac6980778eb0300000000ffffffff88e470f67f5f239d5123eff5cafa1f6ff12dd711ceea2931c69e7ac6980778eb0400000000ffffffff01c0799165010000001976a914785a5258008e272dd1a434eef745fb1277abeee688ac00000000\n</pre>\n\n<pre>\n[\n    {\n        \"txid\" : \"eb780798c67a9ec63129eace11d72df16f1ffacaf5ef23519d235f7ff670e488\",\n        \"vout\" : 3,\n        \"scriptPubKey\" : \"76a9142c24cca04e5115cac70191543293c41fc8589f5688ac\",\n        \"tosign\" : \"b4432ef245832428642ce9e83c6396f40fcf0e1e1614f2e85540b2568fd4d89d\",\n        \"pubkey\" : \"\",\n        \"r\" : \"\",\n        \"s\" : \"\",\n        \"address\" : \"mjYN7McYzwius96QGpDDZYXaaCR1ZkAX3a\",\n        \"type\" : \"pubkeyhash\"\n    },\n    {\n        \"txid\" : \"eb780798c67a9ec63129eace11d72df16f1ffacaf5ef23519d235f7ff670e488\",\n        \"vout\" : 4,\n        \"scriptPubKey\" : \"76a914cc0f71d3b6c2238d73aab4cab4226262eca9f1d488ac\",\n        \"tosign\" : \"4eba4e820bf61c91f48e805f4920418a092602070eb1dbdeae925e74c8ceb7a0\",\n        \"pubkey\" : \"\",\n        \"r\" : \"\",\n        \"s\" : \"\",\n        \"address\" : \"mz7veJL7NPAsJqu5nuLWvRhpNkVHW6PjbR\",\n        \"type\" : \"pubkeyhash\"\n    }\n]\n</pre>\n\nPHONES FILL IN THE DATA AND SEND BACK: \n\n<pre>\n\"hex\":\"010000000288e470f67f5f239d5123eff5cafa1f6ff12dd711ceea2931c69e7ac6980778eb0300000000ffffffff88e470f67f5f239d5123eff5cafa1f6ff12dd711ceea2931c69e7ac6980778eb0400000000ffffffff01c0799165010000001976a914785a5258008e272dd1a434eef745fb1277abeee688ac00000000\"\n...\n[\n    {\n        \"txid\" : \"eb780798c67a9ec63129eace11d72df16f1ffacaf5ef23519d235f7ff670e488\",\n        \"vout\" : 3,\n        \"scriptPubKey\" : \"76a9142c24cca04e5115cac70191543293c41fc8589f5688ac\",\n        \"tosign\" : \"b4432ef245832428642ce9e83c6396f40fcf0e1e1614f2e85540b2568fd4d89d\",\n        \"pubkey\" : \"030995f693606d7102dbce24273f939b7de15487713d8e884afcce3d37c359d767\",\n        \"r\" : \"ef0dfc1d06f39d9b01fa8248d2718e5b5e26430e820385671ee4f30b104162cd\",\n        \"s\" : \"979442b7d7838ae0cc29479ddc41d0b76810c0711e86104225b716159dbc31d2\",\n        \"address\" : \"mjYN7McYzwius96QGpDDZYXaaCR1ZkAX3a\",\n        \"type\" : \"pubkeyhash\"\n    },\n    {\n        \"txid\" : \"eb780798c67a9ec63129eace11d72df16f1ffacaf5ef23519d235f7ff670e488\",\n        \"vout\" : 4,\n        \"scriptPubKey\" : \"76a914cc0f71d3b6c2238d73aab4cab4226262eca9f1d488ac\",\n        \"tosign\" : \"4eba4e820bf61c91f48e805f4920418a092602070eb1dbdeae925e74c8ceb7a0\",\n        \"pubkey\" : \"0304ae97fe2acba599df9b523ec5219ae421cdae67657d57bd0c2c47c27dd42742\",\n        \"r\" : \"a7aa7f41e3889c48599db2d91ce69968155ea3e0e4643d9ceb4dbc44da9da3b5\",\n        \"s\" : \"4b0ed41fe0e0ec4a6459165e628f1269b63ae8e90309d340688a49d2d8d48b5d\",\n        \"address\" : \"mz7veJL7NPAsJqu5nuLWvRhpNkVHW6PjbR\",\n        \"type\" : \"pubkeyhash\"\n    }\n]\n</pre>\n\n\f\nSERVER BUNDLES THE RESULT INTO A TRANSACTION USING signrawtransaction:\n\n<pre>\n$ ./litecoind signrawtransaction \"010000000288e470f67f5f239d5123eff5cafa1f6ff12dd711ceea2931c69e7ac6980778eb0300000000ffffffff88e470f67f5f239d5123eff5cafa1f6ff12dd711ceea2931c69e7ac6980778eb0400000000ffffffff01c0799165010000001976a914785a5258008e272dd1a434eef745fb1277abeee688ac00000000\" '[{\"txid\" : \"eb780798c67a9ec63129eace11d72df16f1ffacaf5ef23519d235f7ff670e488\",\"vout\" : 3,\"scriptPubKey\" : \"76a9142c24cca04e5115cac70191543293c41fc8589f5688ac\",\"tosign\" : \"b4432ef245832428642ce9e83c6396f40fcf0e1e1614f2e85540b2568fd4d89d\",\"pubkey\" : \"030995f693606d7102dbce24273f939b7de15487713d8e884afcce3d37c359d767\",\"r\" : \"ef0dfc1d06f39d9b01fa8248d2718e5b5e26430e820385671ee4f30b104162cd\",\"s\" : \"979442b7d7838ae0cc29479ddc41d0b76810c0711e86104225b716159dbc31d2\",\"address\" : \"mjYN7McYzwius96QGpDDZYXaaCR1ZkAX3a\",\"type\" : \"pubkeyhash\"},{\"txid\" : \"eb780798c67a9ec63129eace11d72df16f1ffacaf5ef23519d235f7ff670e488\",\"vout\" : 4,\"scriptPubKey\" : \"76a914cc0f71d3b6c2238d73aab4cab4226262eca9f1d488ac\",\"tosign\" : \"4eba4e820bf61c91f48e805f4920418a092602070eb1dbdeae925e74c8ceb7a0\",\"pubkey\" : \"0304ae97fe2acba599df9b523ec5219ae421cdae67657d57bd0c2c47c27dd42742\",\"r\" : \"a7aa7f41e3889c48599db2d91ce69968155ea3e0e4643d9ceb4dbc44da9da3b5\",\"s\" : \"4b0ed41fe0e0ec4a6459165e628f1269b63ae8e90309d340688a49d2d8d48b5d\",\"address\" : \"mz7veJL7NPAsJqu5nuLWvRhpNkVHW6PjbR\",\"type\" : \"pubkeyhash\"}]'\n{\n    \"hex\" : \"010000000288e470f67f5f239d5123eff5cafa1f6ff12dd711ceea2931c69e7ac6980778eb030000006c493046022100ef0dfc1d06f39d9b01fa8248d2718e5b5e26430e820385671ee4f30b104162cd022100979442b7d7838ae0cc29479ddc41d0b76810c0711e86104225b716159dbc31d20121030995f693606d7102dbce24273f939b7de15487713d8e884afcce3d37c359d767ffffffff88e470f67f5f239d5123eff5cafa1f6ff12dd711ceea2931c69e7ac6980778eb040000006b483045022100a7aa7f41e3889c48599db2d91ce69968155ea3e0e4643d9ceb4dbc44da9da3b502204b0ed41fe0e0ec4a6459165e628f1269b63ae8e90309d340688a49d2d8d48b5d01210304ae97fe2acba599df9b523ec5219ae421cdae67657d57bd0c2c47c27dd42742ffffffff01c0799165010000001976a914785a5258008e272dd1a434eef745fb1277abeee688ac00000000\",\n    \"complete\" : true\n}\n</pre>\n\n<pre>\n$ ./litecoind sendrawtransaction 010000000288e470f67f5f239d5123eff5cafa1f6ff12dd711ceea2931c69e7ac6980778eb030000006c493046022100ef0dfc1d06f39d9b01fa8248d2718e5b5e26430e820385671ee4f30b104162cd022100979442b7d7838ae0cc29479ddc41d0b76810c0711e86104225b716159dbc31d20121030995f693606d7102dbce24273f939b7de15487713d8e884afcce3d37c359d767ffffffff88e470f67f5f239d5123eff5cafa1f6ff12dd711ceea2931c69e7ac6980778eb040000006b483045022100a7aa7f41e3889c48599db2d91ce69968155ea3e0e4643d9ceb4dbc44da9da3b502204b0ed41fe0e0ec4a6459165e628f1269b63ae8e90309d340688a49d2d8d48b5d01210304ae97fe2acba599df9b523ec5219ae421cdae67657d57bd0c2c47c27dd42742ffffffff01c0799165010000001976a914785a5258008e272dd1a434eef745fb1277abeee688ac00000000\n</pre>\n\n<pre>\n26c929fe09c59f02d613a5d501eafaacd0f1eb6d5400a06c78fba10d57013db8\n</pre>\n",
      "user": {
        "login": "scmorse",
        "id": 4519249,
        "node_id": "MDQ6VXNlcjQ1MTkyNDk=",
        "avatar_url": "https://avatars.githubusercontent.com/u/4519249?v=4",
        "gravatar_id": "",
        "url": "https://api.github.com/users/scmorse",
        "html_url": "https://github.com/scmorse",
        "followers_url": "https://api.github.com/users/scmorse/followers",
        "following_url": "https://api.github.com/users/scmorse/following%7B/other_user%7D",
        "gists_url": "https://api.github.com/users/scmorse/gists%7B/gist_id%7D",
        "starred_url": "https://api.github.com/users/scmorse/starred%7B/owner%7D%7B/repo%7D",
        "subscriptions_url": "https://api.github.com/users/scmorse/subscriptions",
        "organizations_url": "https://api.github.com/users/scmorse/orgs",
        "repos_url": "https://api.github.com/users/scmorse/repos",
        "events_url": "https://api.github.com/users/scmorse/events%7B/privacy%7D",
        "received_events_url": "https://api.github.com/users/scmorse/received_events",
        "type": "User",
        "site_admin": false
      },
      "html_url": "https://github.com/bitcoin/bitcoin/issues/5120#issuecomment-61412091",
      "issue_url": "https://api.github.com/repos/bitcoin/bitcoin/issues/5120"
    },
    {
      "event": "closed",
      "id": 1017802419,
      "node_id": "MDExOkNsb3NlZEV2ZW50MTAxNzgwMjQxOQ==",
      "url": "https://api.github.com/repos/bitcoin/bitcoin/issues/events/1017802419",
      "actor": {
        "login": "scmorse",
        "id": 4519249,
        "node_id": "MDQ6VXNlcjQ1MTkyNDk=",
        "avatar_url": "https://avatars.githubusercontent.com/u/4519249?v=4",
        "gravatar_id": "",
        "url": "https://api.github.com/users/scmorse",
        "html_url": "https://github.com/scmorse",
        "followers_url": "https://api.github.com/users/scmorse/followers",
        "following_url": "https://api.github.com/users/scmorse/following%7B/other_user%7D",
        "gists_url": "https://api.github.com/users/scmorse/gists%7B/gist_id%7D",
        "starred_url": "https://api.github.com/users/scmorse/starred%7B/owner%7D%7B/repo%7D",
        "subscriptions_url": "https://api.github.com/users/scmorse/subscriptions",
        "organizations_url": "https://api.github.com/users/scmorse/orgs",
        "repos_url": "https://api.github.com/users/scmorse/repos",
        "events_url": "https://api.github.com/users/scmorse/events%7B/privacy%7D",
        "received_events_url": "https://api.github.com/users/scmorse/received_events",
        "type": "User",
        "site_admin": false
      },
      "commit_id": null,
      "commit_url": null,
      "created_at": "2017-03-28T02:47:47Z"
    },
    {
      "event": "locked",
      "id": 5271966638,
      "node_id": "LOE_lADOABII584Cxoz7zwAAAAE6O9Ou",
      "url": "https://api.github.com/repos/bitcoin/bitcoin/issues/events/5271966638",
      "actor": {
        "login": "MarcoFalke",
        "id": 6399679,
        "node_id": "MDQ6VXNlcjYzOTk2Nzk=",
        "avatar_url": "https://avatars.githubusercontent.com/u/6399679?v=4",
        "gravatar_id": "",
        "url": "https://api.github.com/users/MarcoFalke",
        "html_url": "https://github.com/MarcoFalke",
        "followers_url": "https://api.github.com/users/MarcoFalke/followers",
        "following_url": "https://api.github.com/users/MarcoFalke/following%7B/other_user%7D",
        "gists_url": "https://api.github.com/users/MarcoFalke/gists%7B/gist_id%7D",
        "starred_url": "https://api.github.com/users/MarcoFalke/starred%7B/owner%7D%7B/repo%7D",
        "subscriptions_url": "https://api.github.com/users/MarcoFalke/subscriptions",
        "organizations_url": "https://api.github.com/users/MarcoFalke/orgs",
        "repos_url": "https://api.github.com/users/MarcoFalke/repos",
        "events_url": "https://api.github.com/users/MarcoFalke/events%7B/privacy%7D",
        "received_events_url": "https://api.github.com/users/MarcoFalke/received_events",
        "type": "User",
        "site_admin": false
      },
      "commit_id": null,
      "commit_url": null,
      "created_at": "2021-09-08T12:25:42Z",
      "lock_reason": "resolved"
    }
  ]
}